{
  "contractName": "SoluLabToken",
  "abi": [
    {
      "inputs": [
        {
          "internalType": "string",
          "name": "name_",
          "type": "string"
        },
        {
          "internalType": "string",
          "name": "symbol_",
          "type": "string"
        },
        {
          "internalType": "uint256",
          "name": "cap_",
          "type": "uint256"
        }
      ],
      "stateMutability": "nonpayable",
      "type": "constructor"
    },
    {
      "anonymous": false,
      "inputs": [
        {
          "indexed": true,
          "internalType": "address",
          "name": "owner",
          "type": "address"
        },
        {
          "indexed": true,
          "internalType": "address",
          "name": "spender",
          "type": "address"
        },
        {
          "indexed": false,
          "internalType": "uint256",
          "name": "value",
          "type": "uint256"
        }
      ],
      "name": "Approval",
      "type": "event"
    },
    {
      "anonymous": false,
      "inputs": [
        {
          "indexed": false,
          "internalType": "address",
          "name": "account",
          "type": "address"
        }
      ],
      "name": "Paused",
      "type": "event"
    },
    {
      "anonymous": false,
      "inputs": [
        {
          "indexed": true,
          "internalType": "bytes32",
          "name": "role",
          "type": "bytes32"
        },
        {
          "indexed": true,
          "internalType": "bytes32",
          "name": "previousAdminRole",
          "type": "bytes32"
        },
        {
          "indexed": true,
          "internalType": "bytes32",
          "name": "newAdminRole",
          "type": "bytes32"
        }
      ],
      "name": "RoleAdminChanged",
      "type": "event"
    },
    {
      "anonymous": false,
      "inputs": [
        {
          "indexed": true,
          "internalType": "bytes32",
          "name": "role",
          "type": "bytes32"
        },
        {
          "indexed": true,
          "internalType": "address",
          "name": "account",
          "type": "address"
        },
        {
          "indexed": true,
          "internalType": "address",
          "name": "sender",
          "type": "address"
        }
      ],
      "name": "RoleGranted",
      "type": "event"
    },
    {
      "anonymous": false,
      "inputs": [
        {
          "indexed": true,
          "internalType": "bytes32",
          "name": "role",
          "type": "bytes32"
        },
        {
          "indexed": true,
          "internalType": "address",
          "name": "account",
          "type": "address"
        },
        {
          "indexed": true,
          "internalType": "address",
          "name": "sender",
          "type": "address"
        }
      ],
      "name": "RoleRevoked",
      "type": "event"
    },
    {
      "anonymous": false,
      "inputs": [
        {
          "indexed": true,
          "internalType": "address",
          "name": "from",
          "type": "address"
        },
        {
          "indexed": true,
          "internalType": "address",
          "name": "to",
          "type": "address"
        },
        {
          "indexed": false,
          "internalType": "uint256",
          "name": "value",
          "type": "uint256"
        }
      ],
      "name": "Transfer",
      "type": "event"
    },
    {
      "anonymous": false,
      "inputs": [
        {
          "indexed": false,
          "internalType": "address",
          "name": "account",
          "type": "address"
        }
      ],
      "name": "Unpaused",
      "type": "event"
    },
    {
      "inputs": [],
      "name": "DEFAULT_ADMIN_ROLE",
      "outputs": [
        {
          "internalType": "bytes32",
          "name": "",
          "type": "bytes32"
        }
      ],
      "stateMutability": "view",
      "type": "function",
      "constant": true
    },
    {
      "inputs": [],
      "name": "MINTER_ROLE",
      "outputs": [
        {
          "internalType": "bytes32",
          "name": "",
          "type": "bytes32"
        }
      ],
      "stateMutability": "view",
      "type": "function",
      "constant": true
    },
    {
      "inputs": [],
      "name": "PAUSER_ROLE",
      "outputs": [
        {
          "internalType": "bytes32",
          "name": "",
          "type": "bytes32"
        }
      ],
      "stateMutability": "view",
      "type": "function",
      "constant": true
    },
    {
      "inputs": [
        {
          "internalType": "address",
          "name": "owner",
          "type": "address"
        },
        {
          "internalType": "address",
          "name": "spender",
          "type": "address"
        }
      ],
      "name": "allowance",
      "outputs": [
        {
          "internalType": "uint256",
          "name": "",
          "type": "uint256"
        }
      ],
      "stateMutability": "view",
      "type": "function",
      "constant": true
    },
    {
      "inputs": [
        {
          "internalType": "address",
          "name": "spender",
          "type": "address"
        },
        {
          "internalType": "uint256",
          "name": "amount",
          "type": "uint256"
        }
      ],
      "name": "approve",
      "outputs": [
        {
          "internalType": "bool",
          "name": "",
          "type": "bool"
        }
      ],
      "stateMutability": "nonpayable",
      "type": "function"
    },
    {
      "inputs": [
        {
          "internalType": "address",
          "name": "account",
          "type": "address"
        }
      ],
      "name": "balanceOf",
      "outputs": [
        {
          "internalType": "uint256",
          "name": "",
          "type": "uint256"
        }
      ],
      "stateMutability": "view",
      "type": "function",
      "constant": true
    },
    {
      "inputs": [
        {
          "internalType": "uint256",
          "name": "amount",
          "type": "uint256"
        }
      ],
      "name": "burn",
      "outputs": [],
      "stateMutability": "nonpayable",
      "type": "function"
    },
    {
      "inputs": [
        {
          "internalType": "address",
          "name": "account",
          "type": "address"
        },
        {
          "internalType": "uint256",
          "name": "amount",
          "type": "uint256"
        }
      ],
      "name": "burnFrom",
      "outputs": [],
      "stateMutability": "nonpayable",
      "type": "function"
    },
    {
      "inputs": [],
      "name": "cap",
      "outputs": [
        {
          "internalType": "uint256",
          "name": "",
          "type": "uint256"
        }
      ],
      "stateMutability": "view",
      "type": "function",
      "constant": true
    },
    {
      "inputs": [],
      "name": "decimals",
      "outputs": [
        {
          "internalType": "uint8",
          "name": "",
          "type": "uint8"
        }
      ],
      "stateMutability": "view",
      "type": "function",
      "constant": true
    },
    {
      "inputs": [
        {
          "internalType": "address",
          "name": "spender",
          "type": "address"
        },
        {
          "internalType": "uint256",
          "name": "subtractedValue",
          "type": "uint256"
        }
      ],
      "name": "decreaseAllowance",
      "outputs": [
        {
          "internalType": "bool",
          "name": "",
          "type": "bool"
        }
      ],
      "stateMutability": "nonpayable",
      "type": "function"
    },
    {
      "inputs": [
        {
          "internalType": "bytes32",
          "name": "role",
          "type": "bytes32"
        }
      ],
      "name": "getRoleAdmin",
      "outputs": [
        {
          "internalType": "bytes32",
          "name": "",
          "type": "bytes32"
        }
      ],
      "stateMutability": "view",
      "type": "function",
      "constant": true
    },
    {
      "inputs": [
        {
          "internalType": "bytes32",
          "name": "role",
          "type": "bytes32"
        },
        {
          "internalType": "uint256",
          "name": "index",
          "type": "uint256"
        }
      ],
      "name": "getRoleMember",
      "outputs": [
        {
          "internalType": "address",
          "name": "",
          "type": "address"
        }
      ],
      "stateMutability": "view",
      "type": "function",
      "constant": true
    },
    {
      "inputs": [
        {
          "internalType": "bytes32",
          "name": "role",
          "type": "bytes32"
        }
      ],
      "name": "getRoleMemberCount",
      "outputs": [
        {
          "internalType": "uint256",
          "name": "",
          "type": "uint256"
        }
      ],
      "stateMutability": "view",
      "type": "function",
      "constant": true
    },
    {
      "inputs": [
        {
          "internalType": "bytes32",
          "name": "role",
          "type": "bytes32"
        },
        {
          "internalType": "address",
          "name": "account",
          "type": "address"
        }
      ],
      "name": "grantRole",
      "outputs": [],
      "stateMutability": "nonpayable",
      "type": "function"
    },
    {
      "inputs": [
        {
          "internalType": "bytes32",
          "name": "role",
          "type": "bytes32"
        },
        {
          "internalType": "address",
          "name": "account",
          "type": "address"
        }
      ],
      "name": "hasRole",
      "outputs": [
        {
          "internalType": "bool",
          "name": "",
          "type": "bool"
        }
      ],
      "stateMutability": "view",
      "type": "function",
      "constant": true
    },
    {
      "inputs": [
        {
          "internalType": "address",
          "name": "spender",
          "type": "address"
        },
        {
          "internalType": "uint256",
          "name": "addedValue",
          "type": "uint256"
        }
      ],
      "name": "increaseAllowance",
      "outputs": [
        {
          "internalType": "bool",
          "name": "",
          "type": "bool"
        }
      ],
      "stateMutability": "nonpayable",
      "type": "function"
    },
    {
      "inputs": [
        {
          "internalType": "address",
          "name": "to",
          "type": "address"
        },
        {
          "internalType": "uint256",
          "name": "amount",
          "type": "uint256"
        }
      ],
      "name": "mint",
      "outputs": [],
      "stateMutability": "nonpayable",
      "type": "function"
    },
    {
      "inputs": [],
      "name": "name",
      "outputs": [
        {
          "internalType": "string",
          "name": "",
          "type": "string"
        }
      ],
      "stateMutability": "view",
      "type": "function",
      "constant": true
    },
    {
      "inputs": [],
      "name": "pause",
      "outputs": [],
      "stateMutability": "nonpayable",
      "type": "function"
    },
    {
      "inputs": [],
      "name": "paused",
      "outputs": [
        {
          "internalType": "bool",
          "name": "",
          "type": "bool"
        }
      ],
      "stateMutability": "view",
      "type": "function",
      "constant": true
    },
    {
      "inputs": [
        {
          "internalType": "bytes32",
          "name": "role",
          "type": "bytes32"
        },
        {
          "internalType": "address",
          "name": "account",
          "type": "address"
        }
      ],
      "name": "renounceRole",
      "outputs": [],
      "stateMutability": "nonpayable",
      "type": "function"
    },
    {
      "inputs": [
        {
          "internalType": "bytes32",
          "name": "role",
          "type": "bytes32"
        },
        {
          "internalType": "address",
          "name": "account",
          "type": "address"
        }
      ],
      "name": "revokeRole",
      "outputs": [],
      "stateMutability": "nonpayable",
      "type": "function"
    },
    {
      "inputs": [
        {
          "internalType": "bytes4",
          "name": "interfaceId",
          "type": "bytes4"
        }
      ],
      "name": "supportsInterface",
      "outputs": [
        {
          "internalType": "bool",
          "name": "",
          "type": "bool"
        }
      ],
      "stateMutability": "view",
      "type": "function",
      "constant": true
    },
    {
      "inputs": [],
      "name": "symbol",
      "outputs": [
        {
          "internalType": "string",
          "name": "",
          "type": "string"
        }
      ],
      "stateMutability": "view",
      "type": "function",
      "constant": true
    },
    {
      "inputs": [],
      "name": "totalSupply",
      "outputs": [
        {
          "internalType": "uint256",
          "name": "",
          "type": "uint256"
        }
      ],
      "stateMutability": "view",
      "type": "function",
      "constant": true
    },
    {
      "inputs": [
        {
          "internalType": "address",
          "name": "recipient",
          "type": "address"
        },
        {
          "internalType": "uint256",
          "name": "amount",
          "type": "uint256"
        }
      ],
      "name": "transfer",
      "outputs": [
        {
          "internalType": "bool",
          "name": "",
          "type": "bool"
        }
      ],
      "stateMutability": "nonpayable",
      "type": "function"
    },
    {
      "inputs": [
        {
          "internalType": "address",
          "name": "sender",
          "type": "address"
        },
        {
          "internalType": "address",
          "name": "recipient",
          "type": "address"
        },
        {
          "internalType": "uint256",
          "name": "amount",
          "type": "uint256"
        }
      ],
      "name": "transferFrom",
      "outputs": [
        {
          "internalType": "bool",
          "name": "",
          "type": "bool"
        }
      ],
      "stateMutability": "nonpayable",
      "type": "function"
    },
    {
      "inputs": [],
      "name": "unpause",
      "outputs": [],
      "stateMutability": "nonpayable",
      "type": "function"
    }
  ],
  "bytecode": "0x60a06040523480156200001157600080fd5b5060405162003c2138038062003c2183398181016040528101906200003791906200055a565b808383818181600590805190602001906200005492919062000421565b5080600690805190602001906200006d92919062000421565b5050506000600760006101000a81548160ff021916908315150217905550620000af6000801b620000a36200018b60201b60201c565b6200019360201b60201c565b620000f07f9f2df0fed2c77648de5860a4cc508cd0818c85b8b8a1ab4ceeef8d981c8956a6620000e46200018b60201b60201c565b6200019360201b60201c565b620001317f65d7a28e3265b37a6474929f336521b332c1681b933f6cb9f3376673440d862a620001256200018b60201b60201c565b6200019360201b60201c565b50506000811162000179576040517f08c379a0000000000000000000000000000000000000000000000000000000008152600401620001709062000624565b60405180910390fd5b806080818152505050505050620007ac565b600033905090565b620001aa8282620001db60201b62000f311760201c565b620001d68160016000858152602001908152602001600020620001f160201b62000f3f1790919060201c565b505050565b620001ed82826200022960201b60201c565b5050565b600062000221836000018373ffffffffffffffffffffffffffffffffffffffff1660001b6200031a60201b60201c565b905092915050565b6200023b82826200039460201b60201c565b6200031657600160008084815260200190815260200160002060000160008373ffffffffffffffffffffffffffffffffffffffff1673ffffffffffffffffffffffffffffffffffffffff16815260200190815260200160002060006101000a81548160ff021916908315150217905550620002bb6200018b60201b60201c565b73ffffffffffffffffffffffffffffffffffffffff168173ffffffffffffffffffffffffffffffffffffffff16837f2f8788117e7eff1d82e926ec794901d17c78024a50270940304540a733656f0d60405160405180910390a45b5050565b60006200032e8383620003fe60201b60201c565b620003895782600001829080600181540180825580915050600190039060005260206000200160009091909190915055826000018054905083600101600084815260200190815260200160002081905550600190506200038e565b600090505b92915050565b600080600084815260200190815260200160002060000160008373ffffffffffffffffffffffffffffffffffffffff1673ffffffffffffffffffffffffffffffffffffffff16815260200190815260200160002060009054906101000a900460ff16905092915050565b600080836001016000848152602001908152602001600020541415905092915050565b8280546200042f90620006fe565b90600052602060002090601f0160209004810192826200045357600085556200049f565b82601f106200046e57805160ff19168380011785556200049f565b828001600101855582156200049f579182015b828111156200049e57825182559160200191906001019062000481565b5b509050620004ae9190620004b2565b5090565b5b80821115620004cd576000816000905550600101620004b3565b5090565b6000620004e8620004e2846200067a565b62000646565b9050828152602081018484840111156200050157600080fd5b6200050e848285620006c8565b509392505050565b600082601f8301126200052857600080fd5b81516200053a848260208601620004d1565b91505092915050565b600081519050620005548162000792565b92915050565b6000806000606084860312156200057057600080fd5b600084015167ffffffffffffffff8111156200058b57600080fd5b620005998682870162000516565b935050602084015167ffffffffffffffff811115620005b757600080fd5b620005c58682870162000516565b9250506040620005d88682870162000543565b9150509250925092565b6000620005f1601583620006ad565b91507f45524332304361707065643a20636170206973203000000000000000000000006000830152602082019050919050565b600060208201905081810360008301526200063f81620005e2565b9050919050565b6000604051905081810181811067ffffffffffffffff8211171562000670576200066f62000763565b5b8060405250919050565b600067ffffffffffffffff82111562000698576200069762000763565b5b601f19601f8301169050602081019050919050565b600082825260208201905092915050565b6000819050919050565b60005b83811015620006e8578082015181840152602081019050620006cb565b83811115620006f8576000848401525b50505050565b600060028204905060018216806200071757607f821691505b602082108114156200072e576200072d62000734565b5b50919050565b7f4e487b7100000000000000000000000000000000000000000000000000000000600052602260045260246000fd5b7f4e487b7100000000000000000000000000000000000000000000000000000000600052604160045260246000fd5b6200079d81620006be565b8114620007a957600080fd5b50565b608051613459620007c8600039600061086a01526134596000f3fe608060405234801561001057600080fd5b50600436106101cf5760003560e01c80635c975abb11610104578063a217fddf116100a2578063d539139311610071578063d539139314610556578063d547741f14610574578063dd62ed3e14610590578063e63ab1e9146105c0576101cf565b8063a217fddf146104a8578063a457c2d7146104c6578063a9059cbb146104f6578063ca15c87314610526576101cf565b80638456cb59116100de5780638456cb59146104205780639010d07c1461042a57806391d148541461045a57806395d89b411461048a576101cf565b80635c975abb146103b657806370a08231146103d457806379cc679014610404576101cf565b8063313ce56711610171578063395093511161014b57806339509351146103445780633f4ba83a1461037457806340c10f191461037e57806342966c681461039a576101cf565b8063313ce567146102ec578063355274ea1461030a57806336568abe14610328576101cf565b806318160ddd116101ad57806318160ddd1461025257806323b872dd14610270578063248a9ca3146102a05780632f2ff15d146102d0576101cf565b806301ffc9a7146101d457806306fdde0314610204578063095ea7b314610222575b600080fd5b6101ee60048036038101906101e9919061250f565b6105de565b6040516101fb9190612e25565b60405180910390f35b61020c610658565b6040516102199190612e5b565b60405180910390f35b61023c60048036038101906102379190612432565b6106ea565b6040516102499190612e25565b60405180910390f35b61025a610708565b60405161026791906130fd565b60405180910390f35b61028a600480360381019061028591906123e3565b610712565b6040516102979190612e25565b60405180910390f35b6102ba60048036038101906102b5919061246e565b61080a565b6040516102c79190612e40565b60405180910390f35b6102ea60048036038101906102e59190612497565b610829565b005b6102f461085d565b6040516103019190613118565b60405180910390f35b610312610866565b60405161031f91906130fd565b60405180910390f35b610342600480360381019061033d9190612497565b61088e565b005b61035e60048036038101906103599190612432565b6108c2565b60405161036b9190612e25565b60405180910390f35b61037c61096e565b005b61039860048036038101906103939190612432565b6109e8565b005b6103b460048036038101906103af9190612538565b610a66565b005b6103be610a7a565b6040516103cb9190612e25565b60405180910390f35b6103ee60048036038101906103e9919061237e565b610a91565b6040516103fb91906130fd565b60405180910390f35b61041e60048036038101906104199190612432565b610ada565b005b610428610b55565b005b610444600480360381019061043f91906124d3565b610bcf565b6040516104519190612e0a565b60405180910390f35b610474600480360381019061046f9190612497565b610bfe565b6040516104819190612e25565b60405180910390f35b610492610c68565b60405161049f9190612e5b565b60405180910390f35b6104b0610cfa565b6040516104bd9190612e40565b60405180910390f35b6104e060048036038101906104db9190612432565b610d01565b6040516104ed9190612e25565b60405180910390f35b610510600480360381019061050b9190612432565b610dec565b60405161051d9190612e25565b60405180910390f35b610540600480360381019061053b919061246e565b610e0a565b60405161054d91906130fd565b60405180910390f35b61055e610e2e565b60405161056b9190612e40565b60405180910390f35b61058e60048036038101906105899190612497565b610e52565b005b6105aa60048036038101906105a591906123a7565b610e86565b6040516105b791906130fd565b60405180910390f35b6105c8610f0d565b6040516105d59190612e40565b60405180910390f35b60007f5a05180f000000000000000000000000000000000000000000000000000000007bffffffffffffffffffffffffffffffffffffffffffffffffffffffff1916827bffffffffffffffffffffffffffffffffffffffffffffffffffffffff19161480610651575061065082610f6f565b5b9050919050565b60606005805461066790613326565b80601f016020809104026020016040519081016040528092919081815260200182805461069390613326565b80156106e05780601f106106b5576101008083540402835291602001916106e0565b820191906000526020600020905b8154815290600101906020018083116106c357829003601f168201915b5050505050905090565b60006106fe6106f7610fe9565b8484610ff1565b6001905092915050565b6000600454905090565b600061071f8484846111bc565b6000600360008673ffffffffffffffffffffffffffffffffffffffff1673ffffffffffffffffffffffffffffffffffffffff168152602001908152602001600020600061076a610fe9565b73ffffffffffffffffffffffffffffffffffffffff1673ffffffffffffffffffffffffffffffffffffffff168152602001908152602001600020549050828110156107ea576040517f08c379a00000000000000000000000000000000000000000000000000000000081526004016107e190612f7d565b60405180910390fd5b6107fe856107f6610fe9565b858403610ff1565b60019150509392505050565b6000806000838152602001908152602001600020600101549050919050565b6108338282611440565b6108588160016000858152602001908152602001600020610f3f90919063ffffffff16565b505050565b60006012905090565b60007f0000000000000000000000000000000000000000000000000000000000000000905090565b6108988282611469565b6108bd81600160008581526020019081526020016000206114ec90919063ffffffff16565b505050565b60006109646108cf610fe9565b8484600360006108dd610fe9565b73ffffffffffffffffffffffffffffffffffffffff1673ffffffffffffffffffffffffffffffffffffffff16815260200190815260200160002060008873ffffffffffffffffffffffffffffffffffffffff1673ffffffffffffffffffffffffffffffffffffffff1681526020019081526020016000205461095f919061315a565b610ff1565b6001905092915050565b61099f7f65d7a28e3265b37a6474929f336521b332c1681b933f6cb9f3376673440d862a61099a610fe9565b610bfe565b6109de576040517f08c379a00000000000000000000000000000000000000000000000000000000081526004016109d590612efd565b60405180910390fd5b6109e661151c565b565b610a197f9f2df0fed2c77648de5860a4cc508cd0818c85b8b8a1ab4ceeef8d981c8956a6610a14610fe9565b610bfe565b610a58576040517f08c379a0000000000000000000000000000000000000000000000000000000008152600401610a4f90612f9d565b60405180910390fd5b610a6282826115be565b5050565b610a77610a71610fe9565b826115cc565b50565b6000600760009054906101000a900460ff16905090565b6000600260008373ffffffffffffffffffffffffffffffffffffffff1673ffffffffffffffffffffffffffffffffffffffff168152602001908152602001600020549050919050565b6000610aed83610ae8610fe9565b610e86565b905081811015610b32576040517f08c379a0000000000000000000000000000000000000000000000000000000008152600401610b2990612fbd565b60405180910390fd5b610b4683610b3e610fe9565b848403610ff1565b610b5083836115cc565b505050565b610b867f65d7a28e3265b37a6474929f336521b332c1681b933f6cb9f3376673440d862a610b81610fe9565b610bfe565b610bc5576040517f08c379a0000000000000000000000000000000000000000000000000000000008152600401610bbc9061305d565b60405180910390fd5b610bcd6117a5565b565b6000610bf6826001600086815260200190815260200160002061184890919063ffffffff16565b905092915050565b600080600084815260200190815260200160002060000160008373ffffffffffffffffffffffffffffffffffffffff1673ffffffffffffffffffffffffffffffffffffffff16815260200190815260200160002060009054906101000a900460ff16905092915050565b606060068054610c7790613326565b80601f0160208091040260200160405190810160405280929190818152602001828054610ca390613326565b8015610cf05780601f10610cc557610100808354040283529160200191610cf0565b820191906000526020600020905b815481529060010190602001808311610cd357829003601f168201915b5050505050905090565b6000801b81565b60008060036000610d10610fe9565b73ffffffffffffffffffffffffffffffffffffffff1673ffffffffffffffffffffffffffffffffffffffff16815260200190815260200160002060008573ffffffffffffffffffffffffffffffffffffffff1673ffffffffffffffffffffffffffffffffffffffff16815260200190815260200160002054905082811015610dcd576040517f08c379a0000000000000000000000000000000000000000000000000000000008152600401610dc49061307d565b60405180910390fd5b610de1610dd8610fe9565b85858403610ff1565b600191505092915050565b6000610e00610df9610fe9565b84846111bc565b6001905092915050565b6000610e2760016000848152602001908152602001600020611862565b9050919050565b7f9f2df0fed2c77648de5860a4cc508cd0818c85b8b8a1ab4ceeef8d981c8956a681565b610e5c8282611877565b610e8181600160008581526020019081526020016000206114ec90919063ffffffff16565b505050565b6000600360008473ffffffffffffffffffffffffffffffffffffffff1673ffffffffffffffffffffffffffffffffffffffff16815260200190815260200160002060008373ffffffffffffffffffffffffffffffffffffffff1673ffffffffffffffffffffffffffffffffffffffff16815260200190815260200160002054905092915050565b7f65d7a28e3265b37a6474929f336521b332c1681b933f6cb9f3376673440d862a81565b610f3b82826118a0565b5050565b6000610f67836000018373ffffffffffffffffffffffffffffffffffffffff1660001b611980565b905092915050565b60007f7965db0b000000000000000000000000000000000000000000000000000000007bffffffffffffffffffffffffffffffffffffffffffffffffffffffff1916827bffffffffffffffffffffffffffffffffffffffffffffffffffffffff19161480610fe25750610fe1826119f0565b5b9050919050565b600033905090565b600073ffffffffffffffffffffffffffffffffffffffff168373ffffffffffffffffffffffffffffffffffffffff161415611061576040517f08c379a00000000000000000000000000000000000000000000000000000000081526004016110589061303d565b60405180910390fd5b600073ffffffffffffffffffffffffffffffffffffffff168273ffffffffffffffffffffffffffffffffffffffff1614156110d1576040517f08c379a00000000000000000000000000000000000000000000000000000000081526004016110c890612f1d565b60405180910390fd5b80600360008573ffffffffffffffffffffffffffffffffffffffff1673ffffffffffffffffffffffffffffffffffffffff16815260200190815260200160002060008473ffffffffffffffffffffffffffffffffffffffff1673ffffffffffffffffffffffffffffffffffffffff168152602001908152602001600020819055508173ffffffffffffffffffffffffffffffffffffffff168373ffffffffffffffffffffffffffffffffffffffff167f8c5be1e5ebec7d5bd14f71427d1e84f3dd0314c0f7b2291e5b200ac8c7c3b925836040516111af91906130fd565b60405180910390a3505050565b600073ffffffffffffffffffffffffffffffffffffffff168373ffffffffffffffffffffffffffffffffffffffff16141561122c576040517f08c379a000000000000000000000000000000000000000000000000000000000815260040161122390612ffd565b60405180910390fd5b600073ffffffffffffffffffffffffffffffffffffffff168273ffffffffffffffffffffffffffffffffffffffff16141561129c576040517f08c379a000000000000000000000000000000000000000000000000000000000815260040161129390612e9d565b60405180910390fd5b6112a7838383611a5a565b6000600260008573ffffffffffffffffffffffffffffffffffffffff1673ffffffffffffffffffffffffffffffffffffffff1681526020019081526020016000205490508181101561132e576040517f08c379a000000000000000000000000000000000000000000000000000000000815260040161132590612f3d565b60405180910390fd5b818103600260008673ffffffffffffffffffffffffffffffffffffffff1673ffffffffffffffffffffffffffffffffffffffff1681526020019081526020016000208190555081600260008573ffffffffffffffffffffffffffffffffffffffff1673ffffffffffffffffffffffffffffffffffffffff16815260200190815260200160002060008282546113c3919061315a565b925050819055508273ffffffffffffffffffffffffffffffffffffffff168473ffffffffffffffffffffffffffffffffffffffff167fddf252ad1be2c89b69c2b068fc378daa952ba7f163c4a11628f55a4df523b3ef8460405161142791906130fd565b60405180910390a361143a848484611a6a565b50505050565b6114498261080a565b61145a81611455610fe9565b611a6f565b61146483836118a0565b505050565b611471610fe9565b73ffffffffffffffffffffffffffffffffffffffff168173ffffffffffffffffffffffffffffffffffffffff16146114de576040517f08c379a00000000000000000000000000000000000000000000000000000000081526004016114d59061309d565b60405180910390fd5b6114e88282611b0c565b5050565b6000611514836000018373ffffffffffffffffffffffffffffffffffffffff1660001b611bed565b905092915050565b611524610a7a565b611563576040517f08c379a000000000000000000000000000000000000000000000000000000000815260040161155a90612ebd565b60405180910390fd5b6000600760006101000a81548160ff0219169083151502179055507f5db9ee0a495bf2e6ff9c91a7834c1ba4fdd244a5e8aa4e537bd38aeae4b073aa6115a7610fe9565b6040516115b49190612e0a565b60405180910390a1565b6115c88282611d73565b5050565b600073ffffffffffffffffffffffffffffffffffffffff168273ffffffffffffffffffffffffffffffffffffffff16141561163c576040517f08c379a000000000000000000000000000000000000000000000000000000000815260040161163390612fdd565b60405180910390fd5b61164882600083611a5a565b6000600260008473ffffffffffffffffffffffffffffffffffffffff1673ffffffffffffffffffffffffffffffffffffffff168152602001908152602001600020549050818110156116cf576040517f08c379a00000000000000000000000000000000000000000000000000000000081526004016116c690612edd565b60405180910390fd5b818103600260008573ffffffffffffffffffffffffffffffffffffffff1673ffffffffffffffffffffffffffffffffffffffff168152602001908152602001600020819055508160046000828254611727919061320a565b92505081905550600073ffffffffffffffffffffffffffffffffffffffff168373ffffffffffffffffffffffffffffffffffffffff167fddf252ad1be2c89b69c2b068fc378daa952ba7f163c4a11628f55a4df523b3ef8460405161178c91906130fd565b60405180910390a36117a083600084611a6a565b505050565b6117ad610a7a565b156117ed576040517f08c379a00000000000000000000000000000000000000000000000000000000081526004016117e490612f5d565b60405180910390fd5b6001600760006101000a81548160ff0219169083151502179055507f62e78cea01bee320cd4e420270b5ea74000d11b0c9f74754ebdbfc544b05a258611831610fe9565b60405161183e9190612e0a565b60405180910390a1565b60006118578360000183611ddd565b60001c905092915050565b600061187082600001611e2e565b9050919050565b6118808261080a565b6118918161188c610fe9565b611a6f565b61189b8383611b0c565b505050565b6118aa8282610bfe565b61197c57600160008084815260200190815260200160002060000160008373ffffffffffffffffffffffffffffffffffffffff1673ffffffffffffffffffffffffffffffffffffffff16815260200190815260200160002060006101000a81548160ff021916908315150217905550611921610fe9565b73ffffffffffffffffffffffffffffffffffffffff168173ffffffffffffffffffffffffffffffffffffffff16837f2f8788117e7eff1d82e926ec794901d17c78024a50270940304540a733656f0d60405160405180910390a45b5050565b600061198c8383611e3f565b6119e55782600001829080600181540180825580915050600190039060005260206000200160009091909190915055826000018054905083600101600084815260200190815260200160002081905550600190506119ea565b600090505b92915050565b60007f01ffc9a7000000000000000000000000000000000000000000000000000000007bffffffffffffffffffffffffffffffffffffffffffffffffffffffff1916827bffffffffffffffffffffffffffffffffffffffffffffffffffffffff1916149050919050565b611a65838383611e62565b505050565b505050565b611a798282610bfe565b611b0857611a9e8173ffffffffffffffffffffffffffffffffffffffff166014611e72565b611aac8360001c6020611e72565b604051602001611abd929190612dd0565b6040516020818303038152906040526040517f08c379a0000000000000000000000000000000000000000000000000000000008152600401611aff9190612e5b565b60405180910390fd5b5050565b611b168282610bfe565b15611be957600080600084815260200190815260200160002060000160008373ffffffffffffffffffffffffffffffffffffffff1673ffffffffffffffffffffffffffffffffffffffff16815260200190815260200160002060006101000a81548160ff021916908315150217905550611b8e610fe9565b73ffffffffffffffffffffffffffffffffffffffff168173ffffffffffffffffffffffffffffffffffffffff16837ff6391f5c32d9c69d2a47ea670b442974b53935d1edc7fd64eb21e047a839171b60405160405180910390a45b5050565b60008083600101600084815260200190815260200160002054905060008114611d67576000600182611c1f919061320a565b9050600060018660000180549050611c37919061320a565b9050818114611cf2576000866000018281548110611c7e577f4e487b7100000000000000000000000000000000000000000000000000000000600052603260045260246000fd5b9060005260206000200154905080876000018481548110611cc8577f4e487b7100000000000000000000000000000000000000000000000000000000600052603260045260246000fd5b90600052602060002001819055508387600101600083815260200190815260200160002081905550505b85600001805480611d2c577f4e487b7100000000000000000000000000000000000000000000000000000000600052603160045260246000fd5b600190038181906000526020600020016000905590558560010160008681526020019081526020016000206000905560019350505050611d6d565b60009150505b92915050565b611d7b610866565b81611d84610708565b611d8e919061315a565b1115611dcf576040517f08c379a0000000000000000000000000000000000000000000000000000000008152600401611dc69061301d565b60405180910390fd5b611dd9828261216c565b5050565b6000826000018281548110611e1b577f4e487b7100000000000000000000000000000000000000000000000000000000600052603260045260246000fd5b9060005260206000200154905092915050565b600081600001805490509050919050565b600080836001016000848152602001908152602001600020541415905092915050565b611e6d8383836122cd565b505050565b606060006002836002611e8591906131b0565b611e8f919061315a565b67ffffffffffffffff811115611ece577f4e487b7100000000000000000000000000000000000000000000000000000000600052604160045260246000fd5b6040519080825280601f01601f191660200182016040528015611f005781602001600182028036833780820191505090505b5090507f300000000000000000000000000000000000000000000000000000000000000081600081518110611f5e577f4e487b7100000000000000000000000000000000000000000000000000000000600052603260045260246000fd5b60200101907effffffffffffffffffffffffffffffffffffffffffffffffffffffffffffff1916908160001a9053507f780000000000000000000000000000000000000000000000000000000000000081600181518110611fe8577f4e487b7100000000000000000000000000000000000000000000000000000000600052603260045260246000fd5b60200101907effffffffffffffffffffffffffffffffffffffffffffffffffffffffffffff1916908160001a9053506000600184600261202891906131b0565b612032919061315a565b90505b600181111561211e577f3031323334353637383961626364656600000000000000000000000000000000600f86166010811061209a577f4e487b7100000000000000000000000000000000000000000000000000000000600052603260045260246000fd5b1a60f81b8282815181106120d7577f4e487b7100000000000000000000000000000000000000000000000000000000600052603260045260246000fd5b60200101907effffffffffffffffffffffffffffffffffffffffffffffffffffffffffffff1916908160001a905350600485901c945080612117906132fc565b9050612035565b5060008414612162576040517f08c379a000000000000000000000000000000000000000000000000000000000815260040161215990612e7d565b60405180910390fd5b8091505092915050565b600073ffffffffffffffffffffffffffffffffffffffff168273ffffffffffffffffffffffffffffffffffffffff1614156121dc576040517f08c379a00000000000000000000000000000000000000000000000000000000081526004016121d3906130bd565b60405180910390fd5b6121e860008383611a5a565b80600460008282546121fa919061315a565b9250508190555080600260008473ffffffffffffffffffffffffffffffffffffffff1673ffffffffffffffffffffffffffffffffffffffff1681526020019081526020016000206000828254612250919061315a565b925050819055508173ffffffffffffffffffffffffffffffffffffffff16600073ffffffffffffffffffffffffffffffffffffffff167fddf252ad1be2c89b69c2b068fc378daa952ba7f163c4a11628f55a4df523b3ef836040516122b591906130fd565b60405180910390a36122c960008383611a6a565b5050565b6122d8838383612325565b6122e0610a7a565b15612320576040517f08c379a0000000000000000000000000000000000000000000000000000000008152600401612317906130dd565b60405180910390fd5b505050565b505050565b600081359050612339816133c7565b92915050565b60008135905061234e816133de565b92915050565b600081359050612363816133f5565b92915050565b6000813590506123788161340c565b92915050565b60006020828403121561239057600080fd5b600061239e8482850161232a565b91505092915050565b600080604083850312156123ba57600080fd5b60006123c88582860161232a565b92505060206123d98582860161232a565b9150509250929050565b6000806000606084860312156123f857600080fd5b60006124068682870161232a565b93505060206124178682870161232a565b925050604061242886828701612369565b9150509250925092565b6000806040838503121561244557600080fd5b60006124538582860161232a565b925050602061246485828601612369565b9150509250929050565b60006020828403121561248057600080fd5b600061248e8482850161233f565b91505092915050565b600080604083850312156124aa57600080fd5b60006124b88582860161233f565b92505060206124c98582860161232a565b9150509250929050565b600080604083850312156124e657600080fd5b60006124f48582860161233f565b925050602061250585828601612369565b9150509250929050565b60006020828403121561252157600080fd5b600061252f84828501612354565b91505092915050565b60006020828403121561254a57600080fd5b600061255884828501612369565b91505092915050565b61256a8161323e565b82525050565b61257981613250565b82525050565b6125888161325c565b82525050565b600061259982613133565b6125a3818561313e565b93506125b38185602086016132c9565b6125bc816133b6565b840191505092915050565b60006125d282613133565b6125dc818561314f565b93506125ec8185602086016132c9565b80840191505092915050565b600061260560208361313e565b91507f537472696e67733a20686578206c656e67746820696e73756666696369656e746000830152602082019050919050565b600061264560238361313e565b91507f45524332303a207472616e7366657220746f20746865207a65726f206164647260008301527f65737300000000000000000000000000000000000000000000000000000000006020830152604082019050919050565b60006126ab60148361313e565b91507f5061757361626c653a206e6f74207061757365640000000000000000000000006000830152602082019050919050565b60006126eb60228361313e565b91507f45524332303a206275726e20616d6f756e7420657863656564732062616c616e60008301527f63650000000000000000000000000000000000000000000000000000000000006020830152604082019050919050565b600061275160398361313e565b91507f45524332305072657365744d696e7465725061757365723a206d75737420686160008301527f76652070617573657220726f6c6520746f20756e7061757365000000000000006020830152604082019050919050565b60006127b760228361313e565b91507f45524332303a20617070726f766520746f20746865207a65726f20616464726560008301527f73730000000000000000000000000000000000000000000000000000000000006020830152604082019050919050565b600061281d60268361313e565b91507f45524332303a207472616e7366657220616d6f756e742065786365656473206260008301527f616c616e636500000000000000000000000000000000000000000000000000006020830152604082019050919050565b600061288360108361313e565b91507f5061757361626c653a20706175736564000000000000000000000000000000006000830152602082019050919050565b60006128c360288361313e565b91507f45524332303a207472616e7366657220616d6f756e742065786365656473206160008301527f6c6c6f77616e63650000000000000000000000000000000000000000000000006020830152604082019050919050565b600061292960368361313e565b91507f45524332305072657365744d696e7465725061757365723a206d75737420686160008301527f7665206d696e74657220726f6c6520746f206d696e74000000000000000000006020830152604082019050919050565b600061298f60248361313e565b91507f45524332303a206275726e20616d6f756e74206578636565647320616c6c6f7760008301527f616e6365000000000000000000000000000000000000000000000000000000006020830152604082019050919050565b60006129f560218361313e565b91507f45524332303a206275726e2066726f6d20746865207a65726f2061646472657360008301527f73000000000000000000000000000000000000000000000000000000000000006020830152604082019050919050565b6000612a5b60258361313e565b91507f45524332303a207472616e736665722066726f6d20746865207a65726f20616460008301527f64726573730000000000000000000000000000000000000000000000000000006020830152604082019050919050565b6000612ac160198361313e565b91507f45524332304361707065643a20636170206578636565646564000000000000006000830152602082019050919050565b6000612b0160248361313e565b91507f45524332303a20617070726f76652066726f6d20746865207a65726f2061646460008301527f72657373000000000000000000000000000000000000000000000000000000006020830152604082019050919050565b6000612b6760378361313e565b91507f45524332305072657365744d696e7465725061757365723a206d75737420686160008301527f76652070617573657220726f6c6520746f2070617573650000000000000000006020830152604082019050919050565b6000612bcd60178361314f565b91507f416363657373436f6e74726f6c3a206163636f756e74200000000000000000006000830152601782019050919050565b6000612c0d60258361313e565b91507f45524332303a2064656372656173656420616c6c6f77616e63652062656c6f7760008301527f207a65726f0000000000000000000000000000000000000000000000000000006020830152604082019050919050565b6000612c7360118361314f565b91507f206973206d697373696e6720726f6c65200000000000000000000000000000006000830152601182019050919050565b6000612cb3602f8361313e565b91507f416363657373436f6e74726f6c3a2063616e206f6e6c792072656e6f756e636560008301527f20726f6c657320666f722073656c6600000000000000000000000000000000006020830152604082019050919050565b6000612d19601f8361313e565b91507f45524332303a206d696e7420746f20746865207a65726f2061646472657373006000830152602082019050919050565b6000612d59602a8361313e565b91507f45524332305061757361626c653a20746f6b656e207472616e7366657220776860008301527f696c6520706175736564000000000000000000000000000000000000000000006020830152604082019050919050565b612dbb816132b2565b82525050565b612dca816132bc565b82525050565b6000612ddb82612bc0565b9150612de782856125c7565b9150612df282612c66565b9150612dfe82846125c7565b91508190509392505050565b6000602082019050612e1f6000830184612561565b92915050565b6000602082019050612e3a6000830184612570565b92915050565b6000602082019050612e55600083018461257f565b92915050565b60006020820190508181036000830152612e75818461258e565b905092915050565b60006020820190508181036000830152612e96816125f8565b9050919050565b60006020820190508181036000830152612eb681612638565b9050919050565b60006020820190508181036000830152612ed68161269e565b9050919050565b60006020820190508181036000830152612ef6816126de565b9050919050565b60006020820190508181036000830152612f1681612744565b9050919050565b60006020820190508181036000830152612f36816127aa565b9050919050565b60006020820190508181036000830152612f5681612810565b9050919050565b60006020820190508181036000830152612f7681612876565b9050919050565b60006020820190508181036000830152612f96816128b6565b9050919050565b60006020820190508181036000830152612fb68161291c565b9050919050565b60006020820190508181036000830152612fd681612982565b9050919050565b60006020820190508181036000830152612ff6816129e8565b9050919050565b6000602082019050818103600083015261301681612a4e565b9050919050565b6000602082019050818103600083015261303681612ab4565b9050919050565b6000602082019050818103600083015261305681612af4565b9050919050565b6000602082019050818103600083015261307681612b5a565b9050919050565b6000602082019050818103600083015261309681612c00565b9050919050565b600060208201905081810360008301526130b681612ca6565b9050919050565b600060208201905081810360008301526130d681612d0c565b9050919050565b600060208201905081810360008301526130f681612d4c565b9050919050565b60006020820190506131126000830184612db2565b92915050565b600060208201905061312d6000830184612dc1565b92915050565b600081519050919050565b600082825260208201905092915050565b600081905092915050565b6000613165826132b2565b9150613170836132b2565b9250827fffffffffffffffffffffffffffffffffffffffffffffffffffffffffffffffff038211156131a5576131a4613358565b5b828201905092915050565b60006131bb826132b2565b91506131c6836132b2565b9250817fffffffffffffffffffffffffffffffffffffffffffffffffffffffffffffffff04831182151516156131ff576131fe613358565b5b828202905092915050565b6000613215826132b2565b9150613220836132b2565b92508282101561323357613232613358565b5b828203905092915050565b600061324982613292565b9050919050565b60008115159050919050565b6000819050919050565b60007fffffffff0000000000000000000000000000000000000000000000000000000082169050919050565b600073ffffffffffffffffffffffffffffffffffffffff82169050919050565b6000819050919050565b600060ff82169050919050565b60005b838110156132e75780820151818401526020810190506132cc565b838111156132f6576000848401525b50505050565b6000613307826132b2565b9150600082141561331b5761331a613358565b5b600182039050919050565b6000600282049050600182168061333e57607f821691505b6020821081141561335257613351613387565b5b50919050565b7f4e487b7100000000000000000000000000000000000000000000000000000000600052601160045260246000fd5b7f4e487b7100000000000000000000000000000000000000000000000000000000600052602260045260246000fd5b6000601f19601f8301169050919050565b6133d08161323e565b81146133db57600080fd5b50565b6133e78161325c565b81146133f257600080fd5b50565b6133fe81613266565b811461340957600080fd5b50565b613415816132b2565b811461342057600080fd5b5056fea2646970667358221220fb2cf13c9247899b6d3da01702066e4ce8257ac274802da4845577c8df3b775a64736f6c63430008000033",
  "immutableReferences": {
    "1513": [
      {
        "length": 32,
        "start": 2154
      }
    ]
  },
  "source": "//SPDX-License-Identifier: MIT\r\npragma solidity ^0.8.0;\r\nimport \"@openzeppelin/contracts/token/ERC20/ERC20.sol\";\r\nimport \"@openzeppelin/contracts/token/ERC20/extensions/ERC20Capped.sol\";\r\nimport \"@openzeppelin/contracts/security/Pausable.sol\";\r\nimport \"@openzeppelin/contracts/token/ERC20/presets/ERC20PresetMinterPauser.sol\";\r\n\r\ncontract SoluLabToken is ERC20PresetMinterPauser,ERC20Capped\r\n {\r\nconstructor(string memory name_, string memory symbol_, uint256 cap_) \r\n        ERC20Capped(cap_)  \r\n        ERC20PresetMinterPauser(name_, symbol_)\r\n        public\r\n    {\r\n        //_mint(msg.sender, 100000000 * 10 ** decimals());\r\n       // _mint(msg.sender, cap_);\r\n    }\r\n\r\n\r\n    function _mint(address account, uint256 amount) internal  override(ERC20Capped,ERC20) {\r\n       //require(ERC20.totalSupply() + amount <= cap(), \"SoluLabToken: cap exceeded\");\r\n        super._mint(account, amount);\r\n    }\r\n\r\n    function _beforeTokenTransfer(\r\n        address from,\r\n        address to,\r\n        uint256 amount\r\n    ) internal override(ERC20, ERC20PresetMinterPauser) {\r\n        super._beforeTokenTransfer(from, to, amount);\r\n    }\r\n\r\n}",
  "sourcePath": "D:\\Assignment\\SLT_ERC20Token\\contracts\\SoluLabToken.sol",
  "compiler": {
    "name": "solc",
    "version": "0.8.0+commit.c7dfd78e.Emscripten.clang"
  },
  "schemaVersion": "3.4.3",
  "updatedAt": "2021-08-29T15:56:04.131Z",
  "networkType": "ethereum",
  "devdoc": {
    "kind": "dev",
    "methods": {
      "allowance(address,address)": {
        "details": "See {IERC20-allowance}."
      },
      "approve(address,uint256)": {
        "details": "See {IERC20-approve}. Requirements: - `spender` cannot be the zero address."
      },
      "balanceOf(address)": {
        "details": "See {IERC20-balanceOf}."
      },
      "burn(uint256)": {
        "details": "Destroys `amount` tokens from the caller. See {ERC20-_burn}."
      },
      "burnFrom(address,uint256)": {
        "details": "Destroys `amount` tokens from `account`, deducting from the caller's allowance. See {ERC20-_burn} and {ERC20-allowance}. Requirements: - the caller must have allowance for ``accounts``'s tokens of at least `amount`."
      },
      "cap()": {
        "details": "Returns the cap on the token's total supply."
      },
      "decimals()": {
        "details": "Returns the number of decimals used to get its user representation. For example, if `decimals` equals `2`, a balance of `505` tokens should be displayed to a user as `5.05` (`505 / 10 ** 2`). Tokens usually opt for a value of 18, imitating the relationship between Ether and Wei. This is the value {ERC20} uses, unless this function is overridden; NOTE: This information is only used for _display_ purposes: it in no way affects any of the arithmetic of the contract, including {IERC20-balanceOf} and {IERC20-transfer}."
      },
      "decreaseAllowance(address,uint256)": {
        "details": "Atomically decreases the allowance granted to `spender` by the caller. This is an alternative to {approve} that can be used as a mitigation for problems described in {IERC20-approve}. Emits an {Approval} event indicating the updated allowance. Requirements: - `spender` cannot be the zero address. - `spender` must have allowance for the caller of at least `subtractedValue`."
      },
      "getRoleAdmin(bytes32)": {
        "details": "Returns the admin role that controls `role`. See {grantRole} and {revokeRole}. To change a role's admin, use {_setRoleAdmin}."
      },
      "getRoleMember(bytes32,uint256)": {
        "details": "Returns one of the accounts that have `role`. `index` must be a value between 0 and {getRoleMemberCount}, non-inclusive. Role bearers are not sorted in any particular way, and their ordering may change at any point. WARNING: When using {getRoleMember} and {getRoleMemberCount}, make sure you perform all queries on the same block. See the following https://forum.openzeppelin.com/t/iterating-over-elements-on-enumerableset-in-openzeppelin-contracts/2296[forum post] for more information."
      },
      "getRoleMemberCount(bytes32)": {
        "details": "Returns the number of accounts that have `role`. Can be used together with {getRoleMember} to enumerate all bearers of a role."
      },
      "grantRole(bytes32,address)": {
        "details": "Overload {grantRole} to track enumerable memberships"
      },
      "hasRole(bytes32,address)": {
        "details": "Returns `true` if `account` has been granted `role`."
      },
      "increaseAllowance(address,uint256)": {
        "details": "Atomically increases the allowance granted to `spender` by the caller. This is an alternative to {approve} that can be used as a mitigation for problems described in {IERC20-approve}. Emits an {Approval} event indicating the updated allowance. Requirements: - `spender` cannot be the zero address."
      },
      "mint(address,uint256)": {
        "details": "Creates `amount` new tokens for `to`. See {ERC20-_mint}. Requirements: - the caller must have the `MINTER_ROLE`."
      },
      "name()": {
        "details": "Returns the name of the token."
      },
      "pause()": {
        "details": "Pauses all token transfers. See {ERC20Pausable} and {Pausable-_pause}. Requirements: - the caller must have the `PAUSER_ROLE`."
      },
      "paused()": {
        "details": "Returns true if the contract is paused, and false otherwise."
      },
      "renounceRole(bytes32,address)": {
        "details": "Overload {renounceRole} to track enumerable memberships"
      },
      "revokeRole(bytes32,address)": {
        "details": "Overload {revokeRole} to track enumerable memberships"
      },
      "supportsInterface(bytes4)": {
        "details": "See {IERC165-supportsInterface}."
      },
      "symbol()": {
        "details": "Returns the symbol of the token, usually a shorter version of the name."
      },
      "totalSupply()": {
        "details": "See {IERC20-totalSupply}."
      },
      "transfer(address,uint256)": {
        "details": "See {IERC20-transfer}. Requirements: - `recipient` cannot be the zero address. - the caller must have a balance of at least `amount`."
      },
      "transferFrom(address,address,uint256)": {
        "details": "See {IERC20-transferFrom}. Emits an {Approval} event indicating the updated allowance. This is not required by the EIP. See the note at the beginning of {ERC20}. Requirements: - `sender` and `recipient` cannot be the zero address. - `sender` must have a balance of at least `amount`. - the caller must have allowance for ``sender``'s tokens of at least `amount`."
      },
      "unpause()": {
        "details": "Unpauses all token transfers. See {ERC20Pausable} and {Pausable-_unpause}. Requirements: - the caller must have the `PAUSER_ROLE`."
      }
    },
    "version": 1
  },
  "userdoc": {
    "kind": "user",
    "methods": {},
    "version": 1
  }
}