{
  "contractName": "SoluLabICOSale",
  "abi": [
    {
      "inputs": [
        {
          "internalType": "uint256",
          "name": "_openTime",
          "type": "uint256"
        },
        {
          "internalType": "uint256",
          "name": "_closeTime",
          "type": "uint256"
        },
        {
          "internalType": "uint256",
          "name": "_goal",
          "type": "uint256"
        },
        {
          "internalType": "uint256",
          "name": "_cap",
          "type": "uint256"
        },
        {
          "internalType": "uint256",
          "name": "_centWeiRate",
          "type": "uint256"
        },
        {
          "internalType": "uint256",
          "name": "_stage",
          "type": "uint256"
        },
        {
          "internalType": "uint256",
          "name": "_tokenTarget",
          "type": "uint256"
        },
        {
          "internalType": "uint256",
          "name": "_initialRate",
          "type": "uint256"
        },
        {
          "internalType": "address payable",
          "name": "_ownerWallet",
          "type": "address"
        },
        {
          "internalType": "contract SoluLabToken",
          "name": "_token",
          "type": "address"
        }
      ],
      "stateMutability": "nonpayable",
      "type": "constructor"
    },
    {
      "anonymous": false,
      "inputs": [],
      "name": "CrowdsaleFinalized",
      "type": "event"
    },
    {
      "anonymous": false,
      "inputs": [
        {
          "indexed": false,
          "internalType": "uint256",
          "name": "prevClosingTime",
          "type": "uint256"
        },
        {
          "indexed": false,
          "internalType": "uint256",
          "name": "newClosingTime",
          "type": "uint256"
        }
      ],
      "name": "TimedCrowdsaleExtended",
      "type": "event"
    },
    {
      "anonymous": false,
      "inputs": [
        {
          "indexed": true,
          "internalType": "address",
          "name": "purchaser",
          "type": "address"
        },
        {
          "indexed": true,
          "internalType": "address",
          "name": "beneficiary",
          "type": "address"
        },
        {
          "indexed": false,
          "internalType": "uint256",
          "name": "value",
          "type": "uint256"
        },
        {
          "indexed": false,
          "internalType": "uint256",
          "name": "amount",
          "type": "uint256"
        }
      ],
      "name": "TokensPurchased",
      "type": "event"
    },
    {
      "inputs": [],
      "name": "CENT_DECIMALS",
      "outputs": [
        {
          "internalType": "uint256",
          "name": "",
          "type": "uint256"
        }
      ],
      "stateMutability": "view",
      "type": "function",
      "constant": true
    },
    {
      "inputs": [],
      "name": "ETHER_THRESHOLD",
      "outputs": [
        {
          "internalType": "uint256",
          "name": "",
          "type": "uint256"
        }
      ],
      "stateMutability": "view",
      "type": "function",
      "constant": true
    },
    {
      "inputs": [
        {
          "internalType": "address",
          "name": "beneficiary",
          "type": "address"
        }
      ],
      "name": "buyTokens",
      "outputs": [],
      "stateMutability": "payable",
      "type": "function",
      "payable": true
    },
    {
      "inputs": [],
      "name": "capReached",
      "outputs": [
        {
          "internalType": "bool",
          "name": "",
          "type": "bool"
        }
      ],
      "stateMutability": "view",
      "type": "function",
      "constant": true
    },
    {
      "inputs": [],
      "name": "capShow",
      "outputs": [
        {
          "internalType": "uint256",
          "name": "",
          "type": "uint256"
        }
      ],
      "stateMutability": "view",
      "type": "function",
      "constant": true
    },
    {
      "inputs": [
        {
          "internalType": "address payable",
          "name": "refundee",
          "type": "address"
        }
      ],
      "name": "claimRefund",
      "outputs": [],
      "stateMutability": "nonpayable",
      "type": "function"
    },
    {
      "inputs": [],
      "name": "closingTime",
      "outputs": [
        {
          "internalType": "uint256",
          "name": "",
          "type": "uint256"
        }
      ],
      "stateMutability": "view",
      "type": "function",
      "constant": true
    },
    {
      "inputs": [
        {
          "internalType": "address",
          "name": "",
          "type": "address"
        }
      ],
      "name": "contributions",
      "outputs": [
        {
          "internalType": "uint256",
          "name": "",
          "type": "uint256"
        }
      ],
      "stateMutability": "view",
      "type": "function",
      "constant": true
    },
    {
      "inputs": [],
      "name": "finalize",
      "outputs": [],
      "stateMutability": "nonpayable",
      "type": "function"
    },
    {
      "inputs": [],
      "name": "finalized",
      "outputs": [
        {
          "internalType": "bool",
          "name": "",
          "type": "bool"
        }
      ],
      "stateMutability": "view",
      "type": "function",
      "constant": true
    },
    {
      "inputs": [],
      "name": "getGoal",
      "outputs": [
        {
          "internalType": "uint256",
          "name": "",
          "type": "uint256"
        }
      ],
      "stateMutability": "view",
      "type": "function",
      "constant": true
    },
    {
      "inputs": [
        {
          "internalType": "address",
          "name": "_beneficiary",
          "type": "address"
        }
      ],
      "name": "getUserContribution",
      "outputs": [
        {
          "internalType": "uint256",
          "name": "",
          "type": "uint256"
        }
      ],
      "stateMutability": "view",
      "type": "function",
      "constant": true
    },
    {
      "inputs": [],
      "name": "goalReached",
      "outputs": [
        {
          "internalType": "bool",
          "name": "",
          "type": "bool"
        }
      ],
      "stateMutability": "view",
      "type": "function",
      "constant": true
    },
    {
      "inputs": [],
      "name": "hasClosed",
      "outputs": [
        {
          "internalType": "bool",
          "name": "",
          "type": "bool"
        }
      ],
      "stateMutability": "view",
      "type": "function",
      "constant": true
    },
    {
      "inputs": [],
      "name": "isOpen",
      "outputs": [
        {
          "internalType": "bool",
          "name": "",
          "type": "bool"
        }
      ],
      "stateMutability": "view",
      "type": "function",
      "constant": true
    },
    {
      "inputs": [],
      "name": "openingTime",
      "outputs": [
        {
          "internalType": "uint256",
          "name": "",
          "type": "uint256"
        }
      ],
      "stateMutability": "view",
      "type": "function",
      "constant": true
    },
    {
      "inputs": [],
      "name": "rateShow",
      "outputs": [
        {
          "internalType": "uint256",
          "name": "",
          "type": "uint256"
        }
      ],
      "stateMutability": "view",
      "type": "function",
      "constant": true
    },
    {
      "inputs": [
        {
          "internalType": "uint256",
          "name": "_stage",
          "type": "uint256"
        }
      ],
      "name": "setCrowdsaleStage",
      "outputs": [],
      "stateMutability": "nonpayable",
      "type": "function"
    },
    {
      "inputs": [],
      "name": "stage",
      "outputs": [
        {
          "internalType": "enum CrowdsaleStage",
          "name": "",
          "type": "uint8"
        }
      ],
      "stateMutability": "view",
      "type": "function",
      "constant": true
    },
    {
      "inputs": [],
      "name": "tokenShow",
      "outputs": [
        {
          "internalType": "contract IERC20",
          "name": "",
          "type": "address"
        }
      ],
      "stateMutability": "view",
      "type": "function",
      "constant": true
    },
    {
      "inputs": [],
      "name": "tokenTarget",
      "outputs": [
        {
          "internalType": "uint256",
          "name": "",
          "type": "uint256"
        }
      ],
      "stateMutability": "view",
      "type": "function",
      "constant": true
    },
    {
      "inputs": [],
      "name": "tokensPurchased",
      "outputs": [
        {
          "internalType": "uint256",
          "name": "",
          "type": "uint256"
        }
      ],
      "stateMutability": "view",
      "type": "function",
      "constant": true
    },
    {
      "inputs": [],
      "name": "usdEth",
      "outputs": [
        {
          "internalType": "uint256",
          "name": "",
          "type": "uint256"
        }
      ],
      "stateMutability": "view",
      "type": "function",
      "constant": true
    },
    {
      "inputs": [],
      "name": "walletShow",
      "outputs": [
        {
          "internalType": "address payable",
          "name": "",
          "type": "address"
        }
      ],
      "stateMutability": "view",
      "type": "function",
      "constant": true
    },
    {
      "inputs": [],
      "name": "weiRaised",
      "outputs": [
        {
          "internalType": "uint256",
          "name": "",
          "type": "uint256"
        }
      ],
      "stateMutability": "view",
      "type": "function",
      "constant": true
    },
    {
      "stateMutability": "payable",
      "type": "receive",
      "payable": true
    }
  ],
  "bytecode": "0x60806040523480156200001157600080fd5b50604051620047df380380620047df83398181016040528101906200003791906200078b565b8386868a8d8d8c8989896001600081905550600083116200008f576040517f08c379a0000000000000000000000000000000000000000000000000000000008152600401620000869062000bb9565b60405180910390fd5b600073ffffffffffffffffffffffffffffffffffffffff168273ffffffffffffffffffffffffffffffffffffffff16141562000102576040517f08c379a0000000000000000000000000000000000000000000000000000000008152600401620000f99062000bdb565b60405180910390fd5b600073ffffffffffffffffffffffffffffffffffffffff168173ffffffffffffffffffffffffffffffffffffffff16141562000175576040517f08c379a00000000000000000000000000000000000000000000000000000000081526004016200016c9062000b75565b60405180910390fd5b8260038190555081600260006101000a81548173ffffffffffffffffffffffffffffffffffffffff021916908373ffffffffffffffffffffffffffffffffffffffff16021790555080600160006101000a81548173ffffffffffffffffffffffffffffffffffffffff021916908373ffffffffffffffffffffffffffffffffffffffff1602179055505050506000811162000247576040517f08c379a00000000000000000000000000000000000000000000000000000000081526004016200023e9062000b97565b60405180910390fd5b80600581905550504282101562000295576040517f08c379a00000000000000000000000000000000000000000000000000000000081526004016200028c9062000b0f565b60405180910390fd5b818111620002da576040517f08c379a0000000000000000000000000000000000000000000000000000000008152600401620002d19062000b53565b60405180910390fd5b816006819055508060078190555050506000600860006101000a81548160ff021916908315150217905550600081116200034b576040517f08c379a0000000000000000000000000000000000000000000000000000000008152600401620003429062000b31565b60405180910390fd5b6200035b6200049660201b60201c565b604051620003699062000738565b62000375919062000af2565b604051809103906000f08015801562000392573d6000803e3d6000fd5b50600a60006101000a81548173ffffffffffffffffffffffffffffffffffffffff021916908373ffffffffffffffffffffffffffffffffffffffff160217905550806009819055505060008311620003e957600080fd5b60008211620003f757600080fd5b82600d8190555081600b81905550670de0b6b3a7640000600b546200041d919062000c0e565b600e819055506200043481620004c060201b60201c565b33600f60006101000a81548173ffffffffffffffffffffffffffffffffffffffff021916908373ffffffffffffffffffffffffffffffffffffffff160217905550505050868811156200048657600080fd5b5050505050505050505062000d52565b6000600260009054906101000a900473ffffffffffffffffffffffffffffffffffffffff16905090565b8060006002811115620004fc577f4e487b7100000000000000000000000000000000000000000000000000000000600052602160045260246000fd5b14156200055b576000600f60146101000a81548160ff0219169083600281111562000550577f4e487b7100000000000000000000000000000000000000000000000000000000600052602160045260246000fd5b02179055506200068d565b806001600281111562000597577f4e487b7100000000000000000000000000000000000000000000000000000000600052602160045260246000fd5b1415620005f6576001600f60146101000a81548160ff02191690836002811115620005eb577f4e487b7100000000000000000000000000000000000000000000000000000000600052602160045260246000fd5b02179055506200068c565b8060028081111562000631577f4e487b7100000000000000000000000000000000000000000000000000000000600052602160045260246000fd5b14156200068b576002600f60146101000a81548160ff0219169083600281111562000685577f4e487b7100000000000000000000000000000000000000000000000000000000600052602160045260246000fd5b02179055505b5b5b600280811115620006c7577f4e487b7100000000000000000000000000000000000000000000000000000000600052602160045260246000fd5b600f60149054906101000a900460ff16600281111562000710577f4e487b7100000000000000000000000000000000000000000000000000000000600052602160045260246000fd5b14156200073557670de0b6b3a764000060016200072e919062000c0e565b600e819055505b50565b611a1c8062002dc383390190565b600081519050620007578162000d04565b92915050565b6000815190506200076e8162000d1e565b92915050565b600081519050620007858162000d38565b92915050565b6000806000806000806000806000806101408b8d031215620007ac57600080fd5b6000620007bc8d828e0162000774565b9a50506020620007cf8d828e0162000774565b9950506040620007e28d828e0162000774565b9850506060620007f58d828e0162000774565b9750506080620008088d828e0162000774565b96505060a06200081b8d828e0162000774565b95505060c06200082e8d828e0162000774565b94505060e0620008418d828e0162000774565b935050610100620008558d828e0162000746565b925050610120620008698d828e016200075d565b9150509295989b9194979a5092959850565b620008868162000c83565b82525050565b60006200089b60338362000bfd565b91507f54696d656443726f776473616c653a206f70656e696e672074696d652069732060008301527f6265666f72652063757272656e742074696d65000000000000000000000000006020830152604082019050919050565b600062000903601e8362000bfd565b91507f526566756e6461626c6543726f776473616c653a20676f616c206973203000006000830152602082019050919050565b60006200094560378362000bfd565b91507f54696d656443726f776473616c653a206f70656e696e672074696d652069732060008301527f6e6f74206265666f726520636c6f73696e672074696d650000000000000000006020830152604082019050919050565b6000620009ad60248362000bfd565b91507f43726f776473616c653a20746f6b656e20697320746865207a65726f2061646460008301527f72657373000000000000000000000000000000000000000000000000000000006020830152604082019050919050565b600062000a1560198362000bfd565b91507f43617070656443726f776473616c653a206361702069732030000000000000006000830152602082019050919050565b600062000a5760148362000bfd565b91507f43726f776473616c653a207261746520697320300000000000000000000000006000830152602082019050919050565b600062000a9960258362000bfd565b91507f43726f776473616c653a2077616c6c657420697320746865207a65726f20616460008301527f64726573730000000000000000000000000000000000000000000000000000006020830152604082019050919050565b600060208201905062000b0960008301846200087b565b92915050565b6000602082019050818103600083015262000b2a816200088c565b9050919050565b6000602082019050818103600083015262000b4c81620008f4565b9050919050565b6000602082019050818103600083015262000b6e8162000936565b9050919050565b6000602082019050818103600083015262000b90816200099e565b9050919050565b6000602082019050818103600083015262000bb28162000a06565b9050919050565b6000602082019050818103600083015262000bd48162000a48565b9050919050565b6000602082019050818103600083015262000bf68162000a8a565b9050919050565b600082825260208201905092915050565b600062000c1b8262000ccb565b915062000c288362000ccb565b9250817fffffffffffffffffffffffffffffffffffffffffffffffffffffffffffffffff048311821515161562000c645762000c6362000cd5565b5b828202905092915050565b600062000c7c8262000cab565b9050919050565b600062000c908262000cab565b9050919050565b600062000ca48262000c6f565b9050919050565b600073ffffffffffffffffffffffffffffffffffffffff82169050919050565b6000819050919050565b7f4e487b7100000000000000000000000000000000000000000000000000000000600052601160045260246000fd5b62000d0f8162000c83565b811462000d1b57600080fd5b50565b62000d298162000c97565b811462000d3557600080fd5b50565b62000d438162000ccb565b811462000d4f57600080fd5b50565b6120618062000d626000396000f3fe60806040526004361061016a5760003560e01c80637d3d6522116100d1578063b97a7d241161008a578063c040e6b811610064578063c040e6b814610519578063cc4d819c14610544578063ec8ac4d81461056f578063f8c365ea1461058b57610181565b8063b97a7d2414610488578063bb8b2b47146104b3578063bffa55d5146104f057610181565b80637d3d6522146103885780638bbade4e146103b3578063a997f82f146103de578063b26214c014610407578063b3f05b9714610432578063b7a8807c1461045d57610181565b80634bb278f3116101235780634bb278f31461029a5780634c262557146102b15780634f935945146102dc57806366c313c614610307578063782e1e6c146103325780637c652e261461035d57610181565b80630792edd5146101865780631515bc2b146101b15780634042b66f146101dc57806342e94c901461020757806347535d7b146102445780634b6753bc1461026f57610181565b366101815761017f61017a6105b6565b6105be565b005b600080fd5b34801561019257600080fd5b5061019b6106e4565b6040516101a89190611b39565b60405180910390f35b3480156101bd57600080fd5b506101c661070e565b6040516101d39190611b7d565b60405180910390f35b3480156101e857600080fd5b506101f161071a565b6040516101fe9190611d50565b60405180910390f35b34801561021357600080fd5b5061022e600480360381019061022991906115fb565b610724565b60405161023b9190611d50565b60405180910390f35b34801561025057600080fd5b5061025961073c565b6040516102669190611b7d565b60405180910390f35b34801561027b57600080fd5b50610284610757565b6040516102919190611d50565b60405180910390f35b3480156102a657600080fd5b506102af610761565b005b3480156102bd57600080fd5b506102c6610849565b6040516102d39190611d50565b60405180910390f35b3480156102e857600080fd5b506102f1610853565b6040516102fe9190611b7d565b60405180910390f35b34801561031357600080fd5b5061031c610867565b6040516103299190611d50565b60405180910390f35b34801561033e57600080fd5b50610347610873565b6040516103549190611d50565b60405180910390f35b34801561036957600080fd5b50610372610879565b60405161037f9190611d50565b60405180910390f35b34801561039457600080fd5b5061039d610885565b6040516103aa9190611b7d565b60405180910390f35b3480156103bf57600080fd5b506103c8610899565b6040516103d59190611d50565b60405180910390f35b3480156103ea57600080fd5b5061040560048036038101906104009190611676565b61089f565b005b34801561041357600080fd5b5061041c610b07565b6040516104299190611b98565b60405180910390f35b34801561043e57600080fd5b50610447610b31565b6040516104549190611b7d565b60405180910390f35b34801561046957600080fd5b50610472610b48565b60405161047f9190611d50565b60405180910390f35b34801561049457600080fd5b5061049d610b52565b6040516104aa9190611d50565b60405180910390f35b3480156104bf57600080fd5b506104da60048036038101906104d591906115fb565b610b5c565b6040516104e79190611d50565b60405180910390f35b3480156104fc57600080fd5b5061051760048036038101906105129190611624565b610ba5565b005b34801561052557600080fd5b5061052e610cc4565b60405161053b9190611bb3565b60405180910390f35b34801561055057600080fd5b50610559610cd7565b6040516105669190611d50565b60405180910390f35b610589600480360381019061058491906115fb565b6105be565b005b34801561059757600080fd5b506105a0610cdd565b6040516105ad9190611d50565b60405180910390f35b600033905090565b60026000541415610604576040517f08c379a00000000000000000000000000000000000000000000000000000000081526004016105fb90611d10565b60405180910390fd5b6002600081905550600034905061061b8282610ce7565b600061062682610da4565b905061063d82600454610dbb90919063ffffffff16565b60048190555061064d8382610dd1565b8273ffffffffffffffffffffffffffffffffffffffff1661066c6105b6565b73ffffffffffffffffffffffffffffffffffffffff167f6faf93231a456e552dbc9961f58d9713ee4f2e69d15f1975b050ef0911053a7b84846040516106b3929190611d6b565b60405180910390a36106c58383610ddf565b6106cd610de3565b6106d78383610ec9565b5050600160008190555050565b6000600260009054906101000a900473ffffffffffffffffffffffffffffffffffffffff16905090565b60006007544211905090565b6000600454905090565b60106020528060005260406000206000915090505481565b6000600654421015801561075257506007544211155b905090565b6000600754905090565b600860009054906101000a900460ff16156107b1576040517f08c379a00000000000000000000000000000000000000000000000000000000081526004016107a890611c50565b60405180910390fd5b6107b961070e565b6107f8576040517f08c379a00000000000000000000000000000000000000000000000000000000081526004016107ef90611c10565b60405180910390fd5b6001600860006101000a81548160ff02191690831515021790555061081b610ecd565b7f9270cc390c096600a1c17c44345a1ba689fafd99d97487b10cfccf86cf73183660405160405180910390a1565b6000600554905090565b600060055461086061071a565b1015905090565b67016345785d8a000081565b600d5481565b670de0b6b3a764000081565b600060095461089261071a565b1015905090565b600b5481565b80600060028111156108da577f4e487b7100000000000000000000000000000000000000000000000000000000600052602160045260246000fd5b1415610936576000600f60146101000a81548160ff0219169083600281111561092c577f4e487b7100000000000000000000000000000000000000000000000000000000600052602160045260246000fd5b0217905550610a61565b8060016002811115610971577f4e487b7100000000000000000000000000000000000000000000000000000000600052602160045260246000fd5b14156109cd576001600f60146101000a81548160ff021916908360028111156109c3577f4e487b7100000000000000000000000000000000000000000000000000000000600052602160045260246000fd5b0217905550610a60565b80600280811115610a07577f4e487b7100000000000000000000000000000000000000000000000000000000600052602160045260246000fd5b1415610a5f576002600f60146101000a81548160ff02191690836002811115610a59577f4e487b7100000000000000000000000000000000000000000000000000000000600052602160045260246000fd5b02179055505b5b5b600280811115610a9a577f4e487b7100000000000000000000000000000000000000000000000000000000600052602160045260246000fd5b600f60149054906101000a900460ff166002811115610ae2577f4e487b7100000000000000000000000000000000000000000000000000000000600052602160045260246000fd5b1415610b0457670de0b6b3a76400006001610afd9190611e1c565b600e819055505b50565b6000600160009054906101000a900473ffffffffffffffffffffffffffffffffffffffff16905090565b6000600860009054906101000a900460ff16905090565b6000600654905090565b6000600954905090565b6000601060008373ffffffffffffffffffffffffffffffffffffffff1673ffffffffffffffffffffffffffffffffffffffff168152602001908152602001600020549050919050565b610bad610b31565b610bec576040517f08c379a0000000000000000000000000000000000000000000000000000000008152600401610be390611cb0565b60405180910390fd5b610bf4610885565b15610c34576040517f08c379a0000000000000000000000000000000000000000000000000000000008152600401610c2b90611c70565b60405180910390fd5b600a60009054906101000a900473ffffffffffffffffffffffffffffffffffffffff1673ffffffffffffffffffffffffffffffffffffffff166351cff8d9826040518263ffffffff1660e01b8152600401610c8f9190611b39565b600060405180830381600087803b158015610ca957600080fd5b505af1158015610cbd573d6000803e3d6000fd5b5050505050565b600f60149054906101000a900460ff1681565b600c5481565b6000600354905090565b67016345785d8a0000811015610cfc57600080fd5b610d068282610ed7565b6000601060008473ffffffffffffffffffffffffffffffffffffffff1673ffffffffffffffffffffffffffffffffffffffff16815260200190815260200160002054905060008282610d589190611dc6565b905080601060008673ffffffffffffffffffffffffffffffffffffffff1673ffffffffffffffffffffffffffffffffffffffff1681526020019081526020016000208190555050505050565b6000600e5482610db49190611e1c565b9050919050565b60008183610dc99190611dc6565b905092915050565b610ddb8282610f43565b5050565b5050565b60006002811115610e1d577f4e487b7100000000000000000000000000000000000000000000000000000000600052602160045260246000fd5b600f60149054906101000a900460ff166002811115610e65577f4e487b7100000000000000000000000000000000000000000000000000000000600052602160045260246000fd5b1415610ebe57610e736106e4565b73ffffffffffffffffffffffffffffffffffffffff166108fc349081150290604051600060405180830381858888f19350505050158015610eb8573d6000803e3d6000fd5b50610ec7565b610ec6610f65565b5b565b5050565b610ed5610ffc565b565b610ee18282611006565b600554610efe82610ef061071a565b610dbb90919063ffffffff16565b1115610f3f576040517f08c379a0000000000000000000000000000000000000000000000000000000008152600401610f3690611bf0565b60405180910390fd5b5050565b80600c54610f519190611dc6565b600c81905550610f6182826110be565b5050565b600a60009054906101000a900473ffffffffffffffffffffffffffffffffffffffff1673ffffffffffffffffffffffffffffffffffffffff1663f340fa0134610fac6105b6565b6040518363ffffffff1660e01b8152600401610fc89190611b1e565b6000604051808303818588803b158015610fe157600080fd5b505af1158015610ff5573d6000803e3d6000fd5b5050505050565b61100461110f565b565b600073ffffffffffffffffffffffffffffffffffffffff168273ffffffffffffffffffffffffffffffffffffffff161415611076576040517f08c379a000000000000000000000000000000000000000000000000000000000815260040161106d90611c90565b60405180910390fd5b60008114156110ba576040517f08c379a00000000000000000000000000000000000000000000000000000000081526004016110b190611d30565b60405180910390fd5b5050565b61110b8282600160009054906101000a900473ffffffffffffffffffffffffffffffffffffffff1673ffffffffffffffffffffffffffffffffffffffff166112b29092919063ffffffff16565b5050565b611117610885565b1561122557600a60009054906101000a900473ffffffffffffffffffffffffffffffffffffffff1673ffffffffffffffffffffffffffffffffffffffff166343d726d66040518163ffffffff1660e01b8152600401600060405180830381600087803b15801561118657600080fd5b505af115801561119a573d6000803e3d6000fd5b50505050600a60009054906101000a900473ffffffffffffffffffffffffffffffffffffffff1673ffffffffffffffffffffffffffffffffffffffff16639af6549a6040518163ffffffff1660e01b8152600401600060405180830381600087803b15801561120857600080fd5b505af115801561121c573d6000803e3d6000fd5b505050506112a8565b600a60009054906101000a900473ffffffffffffffffffffffffffffffffffffffff1673ffffffffffffffffffffffffffffffffffffffff16638c52dc416040518163ffffffff1660e01b8152600401600060405180830381600087803b15801561128f57600080fd5b505af11580156112a3573d6000803e3d6000fd5b505050505b6112b0611338565b565b6113338363a9059cbb60e01b84846040516024016112d1929190611b54565b604051602081830303815290604052907bffffffffffffffffffffffffffffffffffffffffffffffffffffffff19166020820180517bffffffffffffffffffffffffffffffffffffffffffffffffffffffff838183161783525050505061133a565b505050565b565b600061139c826040518060400160405280602081526020017f5361666545524332303a206c6f772d6c6576656c2063616c6c206661696c65648152508573ffffffffffffffffffffffffffffffffffffffff166114019092919063ffffffff16565b90506000815111156113fc57808060200190518101906113bc919061164d565b6113fb576040517f08c379a00000000000000000000000000000000000000000000000000000000081526004016113f290611cf0565b60405180910390fd5b5b505050565b60606114108484600085611419565b90509392505050565b60608247101561145e576040517f08c379a000000000000000000000000000000000000000000000000000000000815260040161145590611c30565b60405180910390fd5b6114678561152d565b6114a6576040517f08c379a000000000000000000000000000000000000000000000000000000000815260040161149d90611cd0565b60405180910390fd5b6000808673ffffffffffffffffffffffffffffffffffffffff1685876040516114cf9190611b07565b60006040518083038185875af1925050503d806000811461150c576040519150601f19603f3d011682016040523d82523d6000602084013e611511565b606091505b5091509150611521828286611540565b92505050949350505050565b600080823b905060008111915050919050565b60608315611550578290506115a0565b6000835111156115635782518084602001fd5b816040517f08c379a00000000000000000000000000000000000000000000000000000000081526004016115979190611bce565b60405180910390fd5b9392505050565b6000813590506115b681611fcf565b92915050565b6000813590506115cb81611fe6565b92915050565b6000815190506115e081611ffd565b92915050565b6000813590506115f581612014565b92915050565b60006020828403121561160d57600080fd5b600061161b848285016115a7565b91505092915050565b60006020828403121561163657600080fd5b6000611644848285016115bc565b91505092915050565b60006020828403121561165f57600080fd5b600061166d848285016115d1565b91505092915050565b60006020828403121561168857600080fd5b6000611696848285016115e6565b91505092915050565b6116a881611e88565b82525050565b6116b781611e76565b82525050565b6116c681611e9a565b82525050565b60006116d782611d94565b6116e18185611daa565b93506116f1818560208601611f19565b80840191505092915050565b61170681611ee3565b82525050565b61171581611f07565b82525050565b600061172682611d9f565b6117308185611db5565b9350611740818560208601611f19565b61174981611faa565b840191505092915050565b6000611761601d83611db5565b91507f43617070656443726f776473616c653a206361702065786365656465640000006000830152602082019050919050565b60006117a1602083611db5565b91507f46696e616c697a61626c6543726f776473616c653a206e6f7420636c6f7365646000830152602082019050919050565b60006117e1602683611db5565b91507f416464726573733a20696e73756666696369656e742062616c616e636520666f60008301527f722063616c6c00000000000000000000000000000000000000000000000000006020830152604082019050919050565b6000611847602783611db5565b91507f46696e616c697a61626c6543726f776473616c653a20616c726561647920666960008301527f6e616c697a6564000000000000000000000000000000000000000000000000006020830152604082019050919050565b60006118ad602183611db5565b91507f526566756e6461626c6543726f776473616c653a20676f616c2072656163686560008301527f64000000000000000000000000000000000000000000000000000000000000006020830152604082019050919050565b6000611913602a83611db5565b91507f43726f776473616c653a2062656e656669636961727920697320746865207a6560008301527f726f2061646472657373000000000000000000000000000000000000000000006020830152604082019050919050565b6000611979602283611db5565b91507f526566756e6461626c6543726f776473616c653a206e6f742066696e616c697a60008301527f65640000000000000000000000000000000000000000000000000000000000006020830152604082019050919050565b60006119df601d83611db5565b91507f416464726573733a2063616c6c20746f206e6f6e2d636f6e74726163740000006000830152602082019050919050565b6000611a1f602a83611db5565b91507f5361666545524332303a204552433230206f7065726174696f6e20646964206e60008301527f6f742073756363656564000000000000000000000000000000000000000000006020830152604082019050919050565b6000611a85601f83611db5565b91507f5265656e7472616e637947756172643a207265656e7472616e742063616c6c006000830152602082019050919050565b6000611ac5601983611db5565b91507f43726f776473616c653a20776569416d6f756e742069732030000000000000006000830152602082019050919050565b611b0181611ed9565b82525050565b6000611b1382846116cc565b915081905092915050565b6000602082019050611b3360008301846116ae565b92915050565b6000602082019050611b4e600083018461169f565b92915050565b6000604082019050611b6960008301856116ae565b611b766020830184611af8565b9392505050565b6000602082019050611b9260008301846116bd565b92915050565b6000602082019050611bad60008301846116fd565b92915050565b6000602082019050611bc8600083018461170c565b92915050565b60006020820190508181036000830152611be8818461171b565b905092915050565b60006020820190508181036000830152611c0981611754565b9050919050565b60006020820190508181036000830152611c2981611794565b9050919050565b60006020820190508181036000830152611c49816117d4565b9050919050565b60006020820190508181036000830152611c698161183a565b9050919050565b60006020820190508181036000830152611c89816118a0565b9050919050565b60006020820190508181036000830152611ca981611906565b9050919050565b60006020820190508181036000830152611cc98161196c565b9050919050565b60006020820190508181036000830152611ce9816119d2565b9050919050565b60006020820190508181036000830152611d0981611a12565b9050919050565b60006020820190508181036000830152611d2981611a78565b9050919050565b60006020820190508181036000830152611d4981611ab8565b9050919050565b6000602082019050611d656000830184611af8565b92915050565b6000604082019050611d806000830185611af8565b611d8d6020830184611af8565b9392505050565b600081519050919050565b600081519050919050565b600081905092915050565b600082825260208201905092915050565b6000611dd182611ed9565b9150611ddc83611ed9565b9250827fffffffffffffffffffffffffffffffffffffffffffffffffffffffffffffffff03821115611e1157611e10611f4c565b5b828201905092915050565b6000611e2782611ed9565b9150611e3283611ed9565b9250817fffffffffffffffffffffffffffffffffffffffffffffffffffffffffffffffff0483118215151615611e6b57611e6a611f4c565b5b828202905092915050565b6000611e8182611eb9565b9050919050565b6000611e9382611eb9565b9050919050565b60008115159050919050565b6000819050611eb482611fbb565b919050565b600073ffffffffffffffffffffffffffffffffffffffff82169050919050565b6000819050919050565b6000611eee82611ef5565b9050919050565b6000611f0082611eb9565b9050919050565b6000611f1282611ea6565b9050919050565b60005b83811015611f37578082015181840152602081019050611f1c565b83811115611f46576000848401525b50505050565b7f4e487b7100000000000000000000000000000000000000000000000000000000600052601160045260246000fd5b7f4e487b7100000000000000000000000000000000000000000000000000000000600052602160045260246000fd5b6000601f19601f8301169050919050565b60038110611fcc57611fcb611f7b565b5b50565b611fd881611e76565b8114611fe357600080fd5b50565b611fef81611e88565b8114611ffa57600080fd5b50565b61200681611e9a565b811461201157600080fd5b50565b61201d81611ed9565b811461202857600080fd5b5056fea2646970667358221220b7430eb4fea23f721b8c8cc512a47da1356ab54df5eb56923827d548bf6c047a64736f6c6343000800003360a06040523480156200001157600080fd5b5060405162001a1c38038062001a1c83398181016040528101906200003791906200023d565b620000576200004b6200015a60201b60201c565b6200016260201b60201c565b600073ffffffffffffffffffffffffffffffffffffffff168173ffffffffffffffffffffffffffffffffffffffff161415620000ca576040517f08c379a0000000000000000000000000000000000000000000000000000000008152600401620000c190620002d1565b60405180910390fd5b8073ffffffffffffffffffffffffffffffffffffffff1660808173ffffffffffffffffffffffffffffffffffffffff1660601b815250506000600260006101000a81548160ff021916908360028111156200014e577f4e487b7100000000000000000000000000000000000000000000000000000000600052602160045260246000fd5b02179055505062000352565b600033905090565b60008060009054906101000a900473ffffffffffffffffffffffffffffffffffffffff169050816000806101000a81548173ffffffffffffffffffffffffffffffffffffffff021916908373ffffffffffffffffffffffffffffffffffffffff1602179055508173ffffffffffffffffffffffffffffffffffffffff168173ffffffffffffffffffffffffffffffffffffffff167f8be0079c531659141344cd1fd0a4f28419497f9722a3daafe3b4186f6b6457e060405160405180910390a35050565b600081519050620002378162000338565b92915050565b6000602082840312156200025057600080fd5b6000620002608482850162000226565b91505092915050565b600062000278602d83620002f3565b91507f526566756e64457363726f773a2062656e65666963696172792069732074686560008301527f207a65726f2061646472657373000000000000000000000000000000000000006020830152604082019050919050565b60006020820190508181036000830152620002ec8162000269565b9050919050565b600082825260208201905092915050565b6000620003118262000318565b9050919050565b600073ffffffffffffffffffffffffffffffffffffffff82169050919050565b620003438162000304565b81146200034f57600080fd5b50565b60805160601c6116ab62000371600039600061027501526116ab6000f3fe6080604052600436106100a75760003560e01c80638da5cb5b116100645780638da5cb5b146101825780639af6549a146101ad578063c19d93fb146101c4578063e3a9db1a146101ef578063f2fde38b1461022c578063f340fa0114610255576100a7565b806338af3eed146100ac57806343d726d6146100d757806351cff8d9146100ee578063685ca19414610117578063715018a6146101545780638c52dc411461016b575b600080fd5b3480156100b857600080fd5b506100c1610271565b6040516100ce9190611358565b60405180910390f35b3480156100e357600080fd5b506100ec610299565b005b3480156100fa57600080fd5b5061011560048036038101906101109190610f50565b61044d565b005b34801561012357600080fd5b5061013e60048036038101906101399190610f27565b6104a1565b60405161014b9190611373565b60405180910390f35b34801561016057600080fd5b50610169610525565b005b34801561017757600080fd5b506101806105ad565b005b34801561018e57600080fd5b50610197610762565b6040516101a4919061133d565b60405180910390f35b3480156101b957600080fd5b506101c261078b565b005b3480156101d057600080fd5b506101d9610876565b6040516101e6919061138e565b60405180910390f35b3480156101fb57600080fd5b5061021660048036038101906102119190610f27565b61088d565b60405161022391906114c9565b60405180910390f35b34801561023857600080fd5b50610253600480360381019061024e9190610f27565b6108d6565b005b61026f600480360381019061026a9190610f27565b6109ce565b005b60007f0000000000000000000000000000000000000000000000000000000000000000905090565b6102a1610a94565b73ffffffffffffffffffffffffffffffffffffffff166102bf610762565b73ffffffffffffffffffffffffffffffffffffffff1614610315576040517f08c379a000000000000000000000000000000000000000000000000000000000815260040161030c90611489565b60405180910390fd5b6000600281111561034f577f4e487b7100000000000000000000000000000000000000000000000000000000600052602160045260246000fd5b610357610876565b600281111561038f577f4e487b7100000000000000000000000000000000000000000000000000000000600052602160045260246000fd5b146103cf576040517f08c379a00000000000000000000000000000000000000000000000000000000081526004016103c690611469565b60405180910390fd5b60028060006101000a81548160ff0219169083600281111561041a577f4e487b7100000000000000000000000000000000000000000000000000000000600052602160045260246000fd5b02179055507f088672c3a6e342f7cd94a65ba63b79df24a8973927b4d05d803c44bbf787d12f60405160405180910390a1565b610456816104a1565b610495576040517f08c379a000000000000000000000000000000000000000000000000000000000815260040161048c90611449565b60405180910390fd5b61049e81610a9c565b50565b6000600160028111156104dd577f4e487b7100000000000000000000000000000000000000000000000000000000600052602160045260246000fd5b6104e5610876565b600281111561051d577f4e487b7100000000000000000000000000000000000000000000000000000000600052602160045260246000fd5b149050919050565b61052d610a94565b73ffffffffffffffffffffffffffffffffffffffff1661054b610762565b73ffffffffffffffffffffffffffffffffffffffff16146105a1576040517f08c379a000000000000000000000000000000000000000000000000000000000815260040161059890611489565b60405180910390fd5b6105ab6000610c1c565b565b6105b5610a94565b73ffffffffffffffffffffffffffffffffffffffff166105d3610762565b73ffffffffffffffffffffffffffffffffffffffff1614610629576040517f08c379a000000000000000000000000000000000000000000000000000000000815260040161062090611489565b60405180910390fd5b60006002811115610663577f4e487b7100000000000000000000000000000000000000000000000000000000600052602160045260246000fd5b61066b610876565b60028111156106a3577f4e487b7100000000000000000000000000000000000000000000000000000000600052602160045260246000fd5b146106e3576040517f08c379a00000000000000000000000000000000000000000000000000000000081526004016106da906114a9565b60405180910390fd5b6001600260006101000a81548160ff0219169083600281111561072f577f4e487b7100000000000000000000000000000000000000000000000000000000600052602160045260246000fd5b02179055507f599d8e5a83cffb867d051598c4d70e805d59802d8081c1c7d6dffc5b6aca2b8960405160405180910390a1565b60008060009054906101000a900473ffffffffffffffffffffffffffffffffffffffff16905090565b6002808111156107c4577f4e487b7100000000000000000000000000000000000000000000000000000000600052602160045260246000fd5b6107cc610876565b6002811115610804577f4e487b7100000000000000000000000000000000000000000000000000000000600052602160045260246000fd5b14610844576040517f08c379a000000000000000000000000000000000000000000000000000000000815260040161083b906113a9565b60405180910390fd5b61087447610850610271565b73ffffffffffffffffffffffffffffffffffffffff16610ce090919063ffffffff16565b565b6000600260009054906101000a900460ff16905090565b6000600160008373ffffffffffffffffffffffffffffffffffffffff1673ffffffffffffffffffffffffffffffffffffffff168152602001908152602001600020549050919050565b6108de610a94565b73ffffffffffffffffffffffffffffffffffffffff166108fc610762565b73ffffffffffffffffffffffffffffffffffffffff1614610952576040517f08c379a000000000000000000000000000000000000000000000000000000000815260040161094990611489565b60405180910390fd5b600073ffffffffffffffffffffffffffffffffffffffff168173ffffffffffffffffffffffffffffffffffffffff1614156109c2576040517f08c379a00000000000000000000000000000000000000000000000000000000081526004016109b9906113c9565b60405180910390fd5b6109cb81610c1c565b50565b60006002811115610a08577f4e487b7100000000000000000000000000000000000000000000000000000000600052602160045260246000fd5b610a10610876565b6002811115610a48577f4e487b7100000000000000000000000000000000000000000000000000000000600052602160045260246000fd5b14610a88576040517f08c379a0000000000000000000000000000000000000000000000000000000008152600401610a7f90611429565b60405180910390fd5b610a9181610dd4565b50565b600033905090565b610aa4610a94565b73ffffffffffffffffffffffffffffffffffffffff16610ac2610762565b73ffffffffffffffffffffffffffffffffffffffff1614610b18576040517f08c379a0000000000000000000000000000000000000000000000000000000008152600401610b0f90611489565b60405180910390fd5b6000600160008373ffffffffffffffffffffffffffffffffffffffff1673ffffffffffffffffffffffffffffffffffffffff1681526020019081526020016000205490506000600160008473ffffffffffffffffffffffffffffffffffffffff1673ffffffffffffffffffffffffffffffffffffffff16815260200190815260200160002081905550610bca818373ffffffffffffffffffffffffffffffffffffffff16610ce090919063ffffffff16565b8173ffffffffffffffffffffffffffffffffffffffff167f7084f5476618d8e60b11ef0d7d3f06914655adb8793e28ff7f018d4c76d505d582604051610c1091906114c9565b60405180910390a25050565b60008060009054906101000a900473ffffffffffffffffffffffffffffffffffffffff169050816000806101000a81548173ffffffffffffffffffffffffffffffffffffffff021916908373ffffffffffffffffffffffffffffffffffffffff1602179055508173ffffffffffffffffffffffffffffffffffffffff168173ffffffffffffffffffffffffffffffffffffffff167f8be0079c531659141344cd1fd0a4f28419497f9722a3daafe3b4186f6b6457e060405160405180910390a35050565b80471015610d23576040517f08c379a0000000000000000000000000000000000000000000000000000000008152600401610d1a90611409565b60405180910390fd5b60008273ffffffffffffffffffffffffffffffffffffffff1682604051610d4990611328565b60006040518083038185875af1925050503d8060008114610d86576040519150601f19603f3d011682016040523d82523d6000602084013e610d8b565b606091505b5050905080610dcf576040517f08c379a0000000000000000000000000000000000000000000000000000000008152600401610dc6906113e9565b60405180910390fd5b505050565b610ddc610a94565b73ffffffffffffffffffffffffffffffffffffffff16610dfa610762565b73ffffffffffffffffffffffffffffffffffffffff1614610e50576040517f08c379a0000000000000000000000000000000000000000000000000000000008152600401610e4790611489565b60405180910390fd5b600034905080600160008473ffffffffffffffffffffffffffffffffffffffff1673ffffffffffffffffffffffffffffffffffffffff1681526020019081526020016000206000828254610ea49190611500565b925050819055508173ffffffffffffffffffffffffffffffffffffffff167f2da466a7b24304f47e87fa2e1e5a81b9831ce54fec19055ce277ca2f39ba42c482604051610ef191906114c9565b60405180910390a25050565b600081359050610f0c81611647565b92915050565b600081359050610f218161165e565b92915050565b600060208284031215610f3957600080fd5b6000610f4784828501610efd565b91505092915050565b600060208284031215610f6257600080fd5b6000610f7084828501610f12565b91505092915050565b610f8281611568565b82525050565b610f9181611556565b82525050565b610fa08161157a565b82525050565b610faf816115c3565b82525050565b6000610fc26038836114ef565b91507f526566756e64457363726f773a2062656e65666963696172792063616e206f6e60008301527f6c79207769746864726177207768696c6520636c6f73656400000000000000006020830152604082019050919050565b60006110286026836114ef565b91507f4f776e61626c653a206e6577206f776e657220697320746865207a65726f206160008301527f64647265737300000000000000000000000000000000000000000000000000006020830152604082019050919050565b600061108e603a836114ef565b91507f416464726573733a20756e61626c6520746f2073656e642076616c75652c207260008301527f6563697069656e74206d617920686176652072657665727465640000000000006020830152604082019050919050565b60006110f4601d836114ef565b91507f416464726573733a20696e73756666696369656e742062616c616e63650000006000830152602082019050919050565b6000611134602b836114ef565b91507f526566756e64457363726f773a2063616e206f6e6c79206465706f736974207760008301527f68696c65206163746976650000000000000000000000000000000000000000006020830152604082019050919050565b600061119a6033836114ef565b91507f436f6e646974696f6e616c457363726f773a207061796565206973206e6f742060008301527f616c6c6f77656420746f207769746864726177000000000000000000000000006020830152604082019050919050565b60006112006029836114ef565b91507f526566756e64457363726f773a2063616e206f6e6c7920636c6f73652077686960008301527f6c652061637469766500000000000000000000000000000000000000000000006020830152604082019050919050565b60006112666020836114ef565b91507f4f776e61626c653a2063616c6c6572206973206e6f7420746865206f776e65726000830152602082019050919050565b60006112a66000836114e4565b9150600082019050919050565b60006112c06032836114ef565b91507f526566756e64457363726f773a2063616e206f6e6c7920656e61626c6520726560008301527f66756e6473207768696c652061637469766500000000000000000000000000006020830152604082019050919050565b611322816115b9565b82525050565b600061133382611299565b9150819050919050565b60006020820190506113526000830184610f88565b92915050565b600060208201905061136d6000830184610f79565b92915050565b60006020820190506113886000830184610f97565b92915050565b60006020820190506113a36000830184610fa6565b92915050565b600060208201905081810360008301526113c281610fb5565b9050919050565b600060208201905081810360008301526113e28161101b565b9050919050565b6000602082019050818103600083015261140281611081565b9050919050565b60006020820190508181036000830152611422816110e7565b9050919050565b6000602082019050818103600083015261144281611127565b9050919050565b600060208201905081810360008301526114628161118d565b9050919050565b60006020820190508181036000830152611482816111f3565b9050919050565b600060208201905081810360008301526114a281611259565b9050919050565b600060208201905081810360008301526114c2816112b3565b9050919050565b60006020820190506114de6000830184611319565b92915050565b600081905092915050565b600082825260208201905092915050565b600061150b826115b9565b9150611516836115b9565b9250827fffffffffffffffffffffffffffffffffffffffffffffffffffffffffffffffff0382111561154b5761154a6115d5565b5b828201905092915050565b600061156182611599565b9050919050565b600061157382611599565b9050919050565b60008115159050919050565b600081905061159482611633565b919050565b600073ffffffffffffffffffffffffffffffffffffffff82169050919050565b6000819050919050565b60006115ce82611586565b9050919050565b7f4e487b7100000000000000000000000000000000000000000000000000000000600052601160045260246000fd5b7f4e487b7100000000000000000000000000000000000000000000000000000000600052602160045260246000fd5b6003811061164457611643611604565b5b50565b61165081611556565b811461165b57600080fd5b50565b61166781611568565b811461167257600080fd5b5056fea2646970667358221220281dd998b32433665e6d9eda399df9ee0fcf9f23b672ff918c485f98b385162864736f6c63430008000033",
  "immutableReferences": {},
  "source": "//SPDX-License-Identifier: MIT\r\npragma solidity ^0.8.0;\r\n\r\nimport \"./crowdsale/Crowdsale.sol\";\r\nimport \"./SoluLabToken.sol\";\r\nimport \"./crowdsale/CrowdsaleStage.sol\";\r\nimport \"./BaseSoluLabICOSale.sol\";\r\nimport \"./crowdsale/MintedCrowdsale.sol\";\r\nimport \"./crowdsale/CappedCrowdsale.sol\";\r\nimport \"./crowdsale/TimedCrowdsale.sol\";\r\nimport \"./crowdsale/RefundableCrowdsale.sol\";\r\nimport \"@openzeppelin/contracts/utils/math/SafeMath.sol\";\r\nimport \"@openzeppelin/contracts/token/ERC20/ERC20.sol\";\r\nimport \"@openzeppelin/contracts/token/ERC20/extensions/ERC20Capped.sol\";\r\n\r\ncontract SoluLabICOSale is BaseSoluLabICOSale\r\n{\r\n    constructor(uint256 _openTime, uint256 _closeTime, uint256 _goal, uint256 _cap,\r\n        uint256 _centWeiRate, uint _stage, \r\n        uint256 _tokenTarget, uint256 _initialRate, address payable _ownerWallet, SoluLabToken _token) public\r\n        BaseSoluLabICOSale(_tokenTarget, _centWeiRate, _stage)\r\n        CappedCrowdsale(_cap)\r\n        RefundableCrowdsale(_goal)\r\n        FinalizableCrowdsale()\r\n        TimedCrowdsale(_openTime, _closeTime)\r\n        Crowdsale(_initialRate, _ownerWallet, _token)\r\n    {\r\n        require(_goal <= _cap);\r\n    }\r\n\r\n   \r\n    function _finalization() internal override{\r\n        super._finalization();\r\n    }\r\n\r\n}",
  "sourcePath": "D:\\Assignment\\SLT_ERC20Token\\contracts\\SoluLabICOSale.sol",
  "compiler": {
    "name": "solc",
    "version": "0.8.0+commit.c7dfd78e.Emscripten.clang"
  },
  "schemaVersion": "3.4.3",
  "updatedAt": "2021-08-29T15:56:04.173Z",
  "networkType": "ethereum",
  "devdoc": {
    "kind": "dev",
    "methods": {
      "buyTokens(address)": {
        "details": "low level token purchase ***DO NOT OVERRIDE*** This function has a non-reentrancy guard, so it shouldn't be called by another `nonReentrant` function.",
        "params": {
          "beneficiary": "Recipient of the token purchase"
        }
      },
      "capReached()": {
        "details": "Checks whether the cap has been reached.",
        "returns": {
          "_0": "Whether the cap was reached"
        }
      },
      "capShow()": {
        "returns": {
          "_0": "the cap of the crowdsale."
        }
      },
      "claimRefund(address)": {
        "details": "Investors can claim refunds here if crowdsale is unsuccessful.",
        "params": {
          "refundee": "Whose refund will be claimed."
        }
      },
      "closingTime()": {
        "returns": {
          "_0": "the crowdsale closing time."
        }
      },
      "finalize()": {
        "details": "Must be called after crowdsale ends, to do some extra finalization work. Calls the contract's finalization function."
      },
      "finalized()": {
        "returns": {
          "_0": "true if the crowdsale is finalized, false otherwise."
        }
      },
      "getGoal()": {
        "returns": {
          "_0": "minimum amount of funds to be raised in wei."
        }
      },
      "getUserContribution(address)": {
        "details": "Returns the amount contributed so far by a sepecific user.",
        "params": {
          "_beneficiary": "Address of contributor"
        },
        "returns": {
          "_0": "User contribution so far"
        }
      },
      "goalReached()": {
        "details": "Checks whether funding goal was reached.",
        "returns": {
          "_0": "Whether funding goal was reached"
        }
      },
      "hasClosed()": {
        "details": "Checks whether the period in which the crowdsale is open has already elapsed.",
        "returns": {
          "_0": "Whether crowdsale period has elapsed"
        }
      },
      "isOpen()": {
        "returns": {
          "_0": "true if the crowdsale is open, false otherwise."
        }
      },
      "openingTime()": {
        "returns": {
          "_0": "the crowdsale opening time."
        }
      },
      "rateShow()": {
        "returns": {
          "_0": "the number of token units a buyer gets per wei."
        }
      },
      "setCrowdsaleStage(uint256)": {
        "details": "Allows admin to update the crowdsale stage",
        "params": {
          "_stage": "Crowdsale stage"
        }
      },
      "tokenShow()": {
        "returns": {
          "_0": "the token being sold."
        }
      },
      "walletShow()": {
        "returns": {
          "_0": "the address where funds are collected."
        }
      },
      "weiRaised()": {
        "returns": {
          "_0": "the amount of wei raised."
        }
      }
    },
    "version": 1
  },
  "userdoc": {
    "events": {
      "TimedCrowdsaleExtended(uint256,uint256)": {
        "notice": "Event for crowdsale extending"
      },
      "TokensPurchased(address,address,uint256,uint256)": {
        "notice": "Event for token purchase logging"
      }
    },
    "kind": "user",
    "methods": {},
    "version": 1
  }
}